:020000040800F2
:1000000058310020450100083F1000086D0D000820
:10001000D50F0008D9090008354A00080000000083
:10002000000000000000000000000000BD450008C6
:10003000550C0008000000004D0700085D2900086D
:100040005F0100085F0100085F0100085F01000810
:100050005F0100085F0100085F0100085F01000800
:100060005F0100085F0100085F0100085F010008F0
:100070005F0100085F0100085F0100085F010008E0
:100080005F0100085F0100085F0100085F010008D0
:100090005F0100085F0100085F0100085F010008C0
:1000A0005F0100085F0100085F0100085F010008B0
:1000B0005F0100085F0100085F0100085F010008A0
:1000C0005F0100085F0100085F0100085F01000890
:1000D0005F010008094700085F0100085F01000890
:1000E0005F0100085F0100085F0100085F01000870
:1000F0005F0100085F0100085F0100085F01000860
:100100005F0100085F0100085F0100085F0100084F
:100110005F0100085F0100085F0100085F0100083F
:100120005F0100085F0100085F0100085F0100082F
:10013000DFF80CD000F0C0FA00480047195800085A
:10014000583100200648804706480047FEE7FEE792
:10015000FEE7FEE7FEE7FEE7FEE7FEE7FEE7FEE777
:10016000A94600083101000872B6704762B67047B0
:10017000EFF3108072B6704780F31088704730BF7D
:10018000704720BF7047B0FA80F0704790FAA0F037
:10019000B0FA80F0704790FAA0F070472DE9F05F58
:1001A0000546002092469B468846064681464024E6
:1001B0001BE0284641464746224600F0CDF953460B
:1001C0005A46C01A914110D311461846224600F0F3
:1001D000B4F92D1A67EB01084F4622460120002191
:1001E00000F0ABF917EB00094E41201EA4F1010409
:1001F000DFDC484631462A464346BDE8F09F2DE9FC
:10020000FE4F804681EA0300C00F0C46009021F0AB
:10021000004123F00045B8EB0200A94105D2404659
:10022000214690461C460B46024623F000401043F0
:1002300047D0270DC7F30A00C3F30A510290401AB2
:10024000019040286BDAC3F3130040F4801B009840
:10025000924620B10023D2EB030A63EB0B0B01980B
:100260005946C0F14002504600F067F906460D4677
:1002700050465946019A00F07FF910EB08006141A1
:10028000002487EA115284EAE7731A4340D0009AA7
:1002900062B3019A012A4FEA075215DC001B61EB99
:1002A00002014FF0004202EA0752CDE90042001C71
:1002B00041F5801132462B4600F07FF903B0BDE8CE
:1002C000F08F40462146F9E7001B61EB0201001C5C
:1002D00041F5801300185B412018A2F5001747EB89
:1002E000030140EAD570B6196D4111E06D084FEA7F
:1002F000360645EAC0754FEA0752001B61EB020162
:10030000001C41F5801149084FEA300000195141A5
:1003100032462B4603B0BDE8F04F00F03FB90098DD
:10032000012240000023D0EB020263EBE07300984F
:1003300021464FEAE074B8EB000061EB0401E9E705
:1003400083F000435BE781F0004158E72DE9FE4F61
:1003500081EA030404F0004421F0004100944FF0CE
:10036000000B23F0004350EA01045ED052EA03047C
:100370005BD0C3F30A54C1F30A552C44A4F2F334FE
:100380000194A0FB0254C1F3130141F48011C3F3A3
:10039000130343F4801301FB024400FB034E840A61
:1003A000970A44EA815447EA8357A4FB07680295F9
:1003B0008D0A05FB07854FEA932C04FB0C54270597
:1003C000029D4FEA065847EA1637B5EB08056EEB73
:1003D000070C870E920E47EA811742EA8312A7FBA9
:1003E0000201B6EB0B0164EB00042B0D43EA0C3366
:1003F0005E1844EB1C50DA465146E7FB0201C5F398
:1004000013044FEA0B3343EA14534FEA0432019CBE
:1004100043EA0603A4F10C040294009CCDE900B465
:1004200000F0CBF803B0BDE8F08F00200146F9E7FB
:100430002DE9F04D81EA030404F0004B21F0004562
:1004400014464FF0000A23F0004150EA050220D084
:1004500054EA01021DD0C5F30A570246C5F313033F
:10046000C1F31300C1F30A5640F4801543F480131E
:10047000A7EB0608101BD64608F2FD3873EB050003
:1004800002D308F1010801E092185B41B8F1000FB6
:1004900003DA00200146BDE8F08D00204FF4801102
:1004A000064684460EE0171B73EB050705D3121BA7
:1004B00063EB050306434CEA010C49084FEA3000A0
:1004C00092185B4150EA0107EDD152EA030012D0C5
:1004D00082EA040083EA0501084305D0101BAB4102
:1004E00006D20122002306E000224FF0004302E082
:1004F0006FF0010253101AEB06004CEB085110EBA1
:100500000A0041EB0B01BDE8F04D00F047B830B5F3
:100510000B46014600202022012409E021FA02F5C1
:100520009D4205D303FA02F5491B04FA02F528445B
:10053000151EA2F10102F1DC30BD202A04DB203AB5
:1005400000FA02F1002070479140C2F1200320FA26
:1005500003F3194390407047202A04DB203A21FA24
:1005600002F00021704721FA02F3D040C2F12002CC
:100570009140084319467047202A06DBCB17203AE2
:1005800041FA02F043EAE07306E041FA02F3D04098
:10059000C2F12002914008431946704710B5141E5D
:1005A00073F1000408DA401C41F1000192185B412C
:1005B0001A4301D120F0010010BD2DE9F04D924603
:1005C0009B4611B1B1FA81F202E0B0FA80F220321A
:1005D0009046FFF7B2FF04460F4640EA0A0041EAA0
:1005E0000B0153465A46084313D0114653EA010003
:1005F00019D0C8F140025046FFF7AEFF05460E463F
:10060000504659464246FFF798FF084305D001205F
:1006100004E020463946BDE8F08D0020054346EA57
:10062000E0762C4337430A986305E40AA0EB080000
:100630000022FD0A44EA47540A3002D50020014650
:10064000E9E7010510196941DDE90845001969412B
:10065000BDE8F04DA2E7C1F30A52C1F3130140F225
:10066000FF3341F480119A4202DA002001467047BC
:1006700040F233439A42A2F2334202DC5242FFF785
:100680006BBFFFF75ABF000030B5041E71F10004C4
:1006900004DB4FF00044404264EB0101141E73F18F
:1006A000000405DB1C464FF00043524263EB040399
:1006B000994208BF904230BD064C074D06E0E06805
:1006C00040F0010394E8070098471034AC42F6D399
:1006D000FFF732FD7C5A00089C5A000872B64EF6AD
:1006E0002250CEF2000040F2FF01C0F20001017082
:1006F00040F2F400C2F20000016881F3088840F281
:100700007600C2F2000040F27701C2F200010A78DE
:10071000027040F2EC05C2F2000540F2F001C2F2B4
:1007200000010A682A60106880F30988EFF31480DA
:1007300040F0020080F31488BFF36F8FBDE8F00F24
:100740000FBCBDE8005006BC62B6084772B6EFF3B6
:10075000098020E9F00F40F2EC05C2F200052E6896
:100760003060744602F02AF840F27600C2F20000CF
:1007700040F27701C2F200010A78027040F2F00103
:10078000C2F200010A682A6044F0040E1068B0E862
:10079000F00F80F3098862B67047000008B56B4619
:1007A000012202A1044801F0F5F808BD53454D5F50
:1007B0004D55544558000000FC13002008B508E0D2
:1007C000012004F0E1FF6A4600214FF4FA7002F0C4
:1007D00033F8F5E700B58BB00AA803210022059293
:1007E000CDE90621089005204FF4807119221F4B96
:1007F000CDE90132CDE90310032000231C4A1DA1DD
:1008000000901F4801F0A2FB0AA8032100220592D4
:10081000CDE90621089010464FF480711922194B3A
:10082000CDE90132CDE9031004200023164A17A1B7
:1008300000901A4801F08AFB0AA8032100220592C1
:10084000CDE90621089010464FF480711922144B0F
:10085000CDE90132CDE9031005200023114A12A190
:100860000090154801F072FB0BB000BD7C06002023
:10087000BD080008417070204D73702050726F00E9
:10088000BC0500203C0B0020BD0700084170702013
:100890005461736B20434F4D000000007C0A002020
:1008A000FC0F00204F090008417070205461736BE9
:1008B00020557365724946003C0F00201FB51BE0B0
:1008C00003A802AB01AA00210090084601F02AFC0F
:1008D0000446BDF80C0078B92546002608E015F856
:1008E000011BBDF8042005A000F03AF8701CC6B248
:1008F000BDF804008642F2DBE2E700007563526552
:100900006365697665203D202564206D73675F739C
:10091000697A65203D2025640D0A000008B500F0C5
:100920005DF804F0F5FD00F049F8684601F084FA3E
:1009300000F0C2F8FFF74EFFFFF730FF06E004F0CB
:10094000F9FE6A4600210A2001F076FFF7E708B5B4
:1009500000BF04E06A460021142001F06DFFF9E7B2
:100960000FB400B599B01BA80390512104A8039BB4
:100970001A9A04F071F80020039002A800231A4686
:1009800019460090074801F049F804A906A004F0B0
:1009900053F802AA0021034801F024F919B05DF8C8
:1009A00014FB0000FC1300202573000000B585B087
:1009B000684603F083FD019805B000BD70B5FFF7F0
:1009C000F5FF044603480068B4FBF0F5284601F043
:1009D000E1FF70BDDC58000800BFFEE710B500F075
:1009E000FBF800F003F800F0F3F810BD70B5002636
:1009F00000201849088018490880184908601849DB
:100A000008601849086018490860184908600024FF
:100A100000BFFFF7ADFB064600BF00250BE000203E
:100A20001049086000F074F800F08CF80D48006878
:100A30000444681C85B2002DF1D00C4804600020ED
:100A4000084908600849086000BF3046FFF794FB7A
:100A500000BF70BD180000201A0000201C000020FC
:100A600020000020280000202C000020240000206E
:100A700001460846044A1268904203D9024A1268A5
:100A8000801A00E0002070472400002070B5002587
:100A900000BFFFF76DFB054600BF0648046800BFB6
:100AA0002846FFF769FB00BF2046FFF7E1FF064637
:100AB000304670BD2800002070B50025FFF7E6FF26
:100AC000044600BFFFF754FB054600BF0020044961
:100AD000086000BF2846FFF74FFB00BF204670BDEF
:100AE0002800002070B5002500BFFFF741FB054638
:100AF00000BF0648046800BF2846FFF73DFB00BF63
:100B00002046FFF7B5FF0646304670BD2C0000209A
:100B100010B509480088401C07490880074800882C
:100B200018B900F083F80649086004480088401CA2
:100B30000249088010BD0000180000201A000020A3
:100B40001C00002010B50F480088401E0D49088089
:100B500008460088A0B900F069F80B49086008460B
:100B600000680A490968441A09480068A04201D28D
:100B70000748046007480068A04201D205480460A5
:100B800010BD00001A000020200000201C000020E2
:100B9000280000202C00002010B5002400BF00BF5A
:100BA000FFF7E6FA044600BFFFF7B2FF00BF1021CF
:100BB000064800F011FA00BFFFF7C4FF00BF20464F
:100BC000FFF7DAFA00BF00BF10BD0000FC1C0020D8
:100BD00010B5FFF7E1FF10BD10B500200249086015
:100BE00000F00AF810BD0000140000200149086060
:100BF000704700001400002010B5FFF7D7FE044630
:100C00000848006840F080700649086000200649E6
:100C100048600846006840F0010008602046FFF781
:100C2000E5FF10BDFCED00E0001000E00149486860
:100C300070470000001000E008B525208DF8000086
:100C400000208DF8020001208DF80300684600F0B6
:100C5000F7F908BD70472DE9F0410246002500264E
:100C6000002000230024002791F803C00CF00F059A
:100C700091F803C00CF0100CBCF1000F03D091F8F8
:100C800002C04CEA050591F800C0BCF1000F31D05C
:100C9000146800202BE04FF0010C0CFA00F3B1F8BF
:100CA00000C00CEA03069E4220D183004FF00F0CD7
:100CB0000CFA03F7BC4305FA03FC4CEA040491F870
:100CC00003C0BCF1280F06D14FF0010C0CFA00FC58
:100CD000C2F814C00AE091F803C0BCF1480F05D176
:100CE0004FF0010C0CFA00FCC2F810C0401C0828A0
:100CF000D1D31460B1F800C0BCF1FF0F34DD5468EB
:100D000000202EE000F1080C4FF0010808FA0CF367
:100D1000B1F800C00CEA03069E4221D183004FF0D7
:100D20000F0C0CFA03F7BC4305FA03FC4CEA04046D
:100D300091F803C0BCF1280F05D100F1080C08FAA6
:100D40000CF8C2F8148091F803C0BCF1480F07D129
:100D500000F1080C4FF0010808FA0CF8C2F81080F6
:100D6000401C0828CED35460BDE8F08109A10020C2
:100D70000CE00A5C124B1A8000BF114A121F128845
:100D800002F04002002AF8D0421CD0B22A28F0D348
:100D900000BFFEE70D0A456E7465722048617264FB
:100DA0004661756C745F48616E646C65722C20538B
:100DB000797374656D2048616C742E0D0A00000013
:100DC0000438014000B585B00121052003F066FB21
:100DD0000121880303F062FB4FF40070ADF81000AE
:100DE00018208DF8130003208DF8120004A918486C
:100DF000FFF731FF4FF48060ADF8100004208DF84C
:100E0000130004A91248FFF726FF4FF4E1300090C9
:100E10000020ADF80400ADF80600ADF80800ADF80C
:100E20000C000C20ADF80A0069460A4803F0FCFCEF
:100E3000012240F22551074803F0D0FC012105486A
:100E400003F089FC4021034803F07CFC05B000BDA1
:100E500000080140003801400948806800F4005053
:100E600058B90848006800F0010030B906488068A9
:100E700000F4807008B1012070470020FCE70000FA
:100E80000010014008080140002001400948806826
:100E900000F4005058B10848006800F0010030B17B
:100EA0000648806800F4807008B90120704700206F
:100EB000FCE700000010014008080140002001404C
:100EC0000948806800F4005058B10848006800F0F4
:100ED000010030B10648806800F4807008B101203C
:100EE00070470020FCE700000010014008080140A6
:100EF000002001400948806800F4005058B10848BB
:100F0000006800F0010030B90648806800F4807085
:100F100008B9012070470020FCE7000000100140E4
:100F200008080140002001400448806800F40040A7
:100F300008B9012070470020FCE7000000200140B4
:100F40000448006800F0080008B90120704700203C
:100F5000FCE70000081401400448806800F4804069
:100F600008B9012070470020FCE700000020014084
:100F70000448806800F4005008B901207047002040
:100F8000FCE70000002001400448806800F0800079
:100F900008B9012070470020FCE700000020014054
:100FA0000948806800F4005058B90848006800F00B
:100FB000010030B10648806800F4807008B101205B
:100FC00070470020FCE700000010014008080140C5
:100FD0000020014000BFFEE730B505460C46224622
:100FE0000021284600F001F830BD2DE9F04105460A
:100FF0000B4694460027002402E03F021F43641C76
:10100000042CFAD3604605F00306294646B134465F
:1010100003E001F8013B401E641C08B1042CF8D326
:101020000A4601E080C2001F0428FBD2114602E0FC
:1010300001F8013B401E0028FAD1BDE8F08170475D
:1010400070B5002100230F22C47804B3154C246826
:1010500004F4E064C4F5E064210AC1F10403CA4069
:10106000447804FA03F184781440214309010E4CBA
:101070000678A155047804F01F050124AC400578DA
:101080006D11AD0005F1E025C5F8004109E00478D7
:1010900004F01F050124AC40044D0678761145F894
:1010A000264070BD0CED00E000E400E080E100E0CF
:1010B00002490143024A1160704700000000FA052E
:1010C0000CED00E07047000010B50348006810B157
:1010D00001480068804710BD4000002070B50446FC
:1010E00000F0AAF800203A4908703A4908703A49D5
:1010F00008703A4908603A4908603A4908703A4924
:1011000008703A48056845B13948066803E0761E1C
:10111000002028602D1D002EF9D1002035490860DF
:101120003549086035490860354908603549086027
:1011300035490860354908603549087001F0A4FF59
:1011400001F0D2FF0020334908603349088020466F
:1011500001F06AFD208800B170BD204601F070FDED
:10116000208800B1F8E700202C4908602C4908804D
:101170002C4908602C4908802C4908602C490880BB
:10118000204602F05FFB208800B1E5E7204601F031
:1011900013FD208800B1DFE7204602F0FFFF208822
:1011A00000B1D9E7204602F043FA208800B1D3E726
:1011B000204603F057F8208800B1CDE701F002FC8B
:1011C000FFF780FF01201B49087000BFC4E7000043
:1011D000540000205C0000207E000020EC00002075
:1011E000F00000207600002077000020A8580008BA
:1011F000AC58000834000020380000203C000020DB
:101200004000002044000020480000204C00002046
:10121000B200002060000020640000207000002068
:1012200074000020780000207C0000208000002056
:10123000840000205D0000200A4A1168002002E0BE
:10124000002204C1401C084A12689042F8D3054AA3
:101250001268054B1B6802EB8302121F034B1A60D6
:1012600070470000A8580008AC580008F40000209F
:1012700008480078012800D0704707480078FA280D
:1012800000D3F9E704480078401C0349087000BF08
:10129000F2E700005C0000205400002010B500249C
:1012A0002D480078012800D010BD00BFFEF760FF78
:1012B000044600BF2948007828B900BF2046FEF741
:1012C0005BFF00BFF0E725480078401E2349087007
:1012D0000846007828B100BF2046FEF74DFF00BF4A
:1012E000E2E71F48007828B100BF2046FEF744FF20
:1012F00000BFD9E701F0BCFE1A4908700846007823
:1013000000EB4000184951F82000184908600846D1
:10131000006817490968884205D100BF2046FEF7DA
:101320002BFF00BFC0E711480068D0F88C00401CBC
:101330000E490968C1F88C000E480068401C0D4930
:1013400008604FF080500C49086000BF2046FEF74F
:1013500013FF00BF00BFA7E75C000020540000207F
:101360007E0000207700002068290020F000002087
:10137000EC000020A800002004ED00E02DE9F04181
:1013800004460E46154600271B48007820B142F659
:10139000E1602880BDE8F0811CB945F6C350288083
:1013A000F8E700BF00BFFEF7E3FE074600BFFFF708
:1013B000AFFB00BF114820606660002020626062C1
:1013C00084F82800E06204F1080001F089FD20465D
:1013D00001F0B0FC0A480088401C0949088000BFA1
:1013E000FFF7B0FB00BF3846FEF7C6FE00BF00BFE8
:1013F0000020288000BFCDE7540000204D555458F0
:10140000740000202DE9F04788B00546894617464C
:101410001C46109E4FF0000A8048007828B146F222
:10142000AE10308008B0BDE8F0871DB945F6C35056
:101430003080F7E71FB1B7F5004F02D100E000BFE1
:1014400003E045F625603080ECE700BF744928686A
:10145000884203D045F6C4503080E3E700BF00BFA8
:10146000FEF786FE824600BFFFF752FB00BF95F8ED
:101470002800C8B96B4800686862012085F8280018
:101480000CB1E86A206029466648006801F06AFCF1
:1014900000BFFFF757FB00BF5046FEF76DFE00BFD1
:1014A00000BF00203080BDE75E49686A0968884255
:1014B00025D195F82800FF280CD100BFFFF742FB8B
:1014C00000BF5046FEF758FE00BF00BF45F28470D3
:1014D0003080A7E795F82800401C85F828000CB15B
:1014E000E86A206000BFFFF72DFB00BF5046FEF703
:1014F00043FE00BF00BF45F28270308092E707F4E0
:10150000004078B100BFFFF71DFB00BF5046FEF75B
:1015100033FE00BF00BF0CB10020206046F2B010C7
:1015200030807FE74048007878B100BFFFF70AFBC2
:1015300000BF5046FEF720FE00BF00BF0CB10020E8
:10154000206046F6635030806CE7D5F8248098F828
:1015500037003449096891F83710884206DD314870
:10156000006890F83710404602F0DEF84B4604223F
:101570002946684601F01EFC00BFFFF7E3FA00BFF2
:101580005046FEF7F9FD00BF00BF00F027F900BF8D
:1015900000BFFEF7EDFD824600BFFFF7B9FA00BFBE
:1015A0002048006890F8350030B101280CD002289E
:1015B0001AD0032821D110E01CB11A480068806CB1
:1015C0002060002030801CE01CB116480068806C50
:1015D000206046F2A910308013E00CB1002020609A
:1015E00047F2D92030800CE01CB10E480068806CB6
:1015F000206045F6C250308003E046F62E60308011
:1016000000BF00BF00BFFFF79DFA00BF5046FEF7C6
:10161000B3FD00BF00BF00BF04E70000540000207E
:101620004D555458EC0000207E0000202DE9F84F65
:101630000446894615464FF0000B6448007820B1F7
:1016400046F20E202880BDE8F88F1CB945F6C3503D
:101650002880F8E7B9F1000F03D0B9F5004F02D1A7
:1016600000E000BF03E045F625602880EBE700BFFF
:1016700057492068884203D045F6C4502880E2E7E5
:1016800000BF00BFFEF774FD834600BFFFF740FABE
:1016900000BF5049606A096888420CD000BFFFF75C
:1016A00051FA00BF5846FEF767FD00BF00BF45F284
:1016B00081702880C7E7FFF7B9FA80462834C4F85C
:1016C00004802078401E207014F8280960B100BF03
:1016D000FFF738FA00BF5846FEF74EFD00BF00BFC7
:1016E00045F283702880AEE721463A48006801F051
:1016F00053FB04F1080ADAF8000078B900206062B0
:1017000084F8280000BFFFF71DFA00BF5846FEF717
:1017100033FD00BF00BF0020288094E72D480068FB
:1017200090F837002B49096891F83810884228D082
:101730002848006801F01AFB06462648006890F821
:101740003810B14204DA2348006890F8380000E00D
:10175000304606461F48006890F83700B04210DA5D
:101760001C48006801F026FD1A48006880F83760C0
:10177000304601F095FC1748006801F0FDFC164862
:101780000670DAF8000087686762012084F8280094
:101790002146384601F0E6FA00231A46394620462B
:1017A000CDF8008001F00EFC00BFFFF7CBF900BFC1
:1017B0005846FEF7E1FC00BF00BF09F4004008B93D
:1017C00000F00CF80020288000BF3CE75400002007
:1017D0004D555458EC0000207600002010B5002430
:1017E0002048007800B110BD1F48007800B1FAE72A
:1017F00000BFFEF7BDFC044600BF01F039FC1B49E9
:1018000008700846007800EB4000194951F82000A4
:10181000184908600846006817490968884205D1D8
:1018200000BF2046FEF7A8FC00BFDCE711480068B7
:10183000D0F88C00401C0F490968C1F88C000F4893
:101840000068401C0D4908604FF080500C4908604A
:1018500000BF2046FEF790FC00BFBFF36F8F00BFB4
:10186000C1E70000540000207E0000207700002027
:1018700068290020F0000020EC000020A8000020D3
:1018800004ED00E070B5044600251948007818B151
:1018900046F66250208070BD16480078012803D0BB
:1018A00045F689602080F6E713480078FA2803D3CC
:1018B00045F209202080EEE700BF00BFFEF758FC8C
:1018C000054600BFFFF724F900BF0B480078401C15
:1018D0000949087000BFFFF735F900BF2846FEF739
:1018E0004BFC00BF00BF0020208000BFD3E70000FA
:1018F000540000205C0000207E00002070B50446EB
:1019000000252148007818B146F66550208070BD4A
:101910001E480078012803D045F689602080F6E74C
:101920001B48007818B946F664502080EFE700BFE6
:1019300000BFFEF71DFC054600BFFFF7E9F800BF3A
:1019400013480078401E124908700846007860B1BC
:1019500000BFFFF7F7F800BF2846FEF70DFC00BFF9
:1019600000BF46F663502080D1E700BFFFF7EAF8DA
:1019700000BF2846FEF700FC00BF00BFFFF72EFFA8
:101980000020208000BFC2E7540000205C0000203F
:101990007E0000202DE9F04104460E4617461D4604
:1019A0004FF000081A48007820B142F6E160288024
:1019B000BDE8F0811CB945F6C3502880F8E700BFA8
:1019C00000BFFEF7D5FB804600BFFFF7A1F800BFC0
:1019D00010482060276200206062666004F1080001
:1019E00001F07EFA204601F013FC0B480088401CF1
:1019F0000949088000BFFFF7A5F800BF4046FEF781
:101A0000BBFB00BF00BF0020288000BFD0E7000064
:101A10005400002053454D41840000202DE9F0473B
:101A200088B00646894690461C46109D4FF0000A35
:101A30006848007830B146F2AE102880002008B027
:101A4000BDE8F08726B945F6C35028800020F6E7A8
:101A5000B8F1000F03D0B8F5004F02D100E000BF8D
:101A600004E045F6256028800020E8E700BF5A49D9
:101A70003068884204D045F6C45028800020DEE754
:101A800000BF00BFFEF774FB824600BFFFF740F8BF
:101A900000BF306A98B1306A401E30620CB1706A83
:101AA0002060376A00BFFFF74DF800BF5046FEF7D1
:101AB00063FB00BF00BF002028803846BFE708F462
:101AC000004088B10CB100202060376A00BFFFF7EA
:101AD00039F800BF5046FEF74FFB00BF00BF46F28B
:101AE000B01028803846AAE73C48007880B10CB195
:101AF0000020206000BFFFF725F800BF5046FEF72A
:101B00003BFB00BF00BF46F663502880002096E7ED
:101B10004B4606223146684601F04CF900BFFFF7FC
:101B200011F800BF5046FEF727FB00BF00BFFFF7CC
:101B300055FE00BF00BFFEF71BFB824600BFFEF74D
:101B4000E7FF00BF2648006890F8350030B1012853
:101B50000CD002281AD0032821D110E01CB1204853
:101B60000068806C20600020288026E01CB11C48A2
:101B70000068806C206046F2A91028801DE00CB13E
:101B80000020206047F2D920288016E01CB11448BC
:101B90000068806C206045F6C25028800DE046F653
:101BA0002E60288000BFFEF7CDFF00BF5046FEF735
:101BB000E3FA00BF00BF002041E700BF376A00BF63
:101BC000FEF7C0FF00BF5046FEF7D6FA00BF00BFC9
:101BD000384634E75400002053454D417E00002034
:101BE000EC0000202DE9F04105460E4614462DB9C3
:101BF00045F6C35020800020BDE8F0814EB1B6F517
:101C0000007F07D0B6F5004F05D0B6F5024F04D1DE
:101C100002E000BF00BF00BF04E045F62560208061
:101C20000020E9E700BF0A492868884204D045F649
:101C3000C45020800020DFE7FEF7F8FF80462346EF
:101C400042463146284601F0FBFA07463846D3E7BC
:101C500053454D4170B504461D480078012803D016
:101C600045F68B60208070BD00256D1C6D1C6D1CC1
:101C70006D1C18480088A84203DC45F68C60208063
:101C8000F1E715480078E8B901F0F2F91349087056
:101C900008460078124908701048007800EB4000B0
:101CA000104951F8200010490860084600680F49A3
:101CB0000860012008490870FEF710FD43F69920DE
:101CC000208002E045F68A60208000BFCBE700005C
:101CD0005D000020B00000205C00002077000020A4
:101CE0007600002068290020F0000020EC00002091
:101CF0002DE9F04107464FF0000800BF00BFFEF796
:101D000037FA804600BFFEF703FF00BF00204249BC
:101D100008804249086042490860424908604249D7
:101D200008604249088100BFFEF70CFF00BF404633
:101D3000FEF722FA00BF00BF00BF00BFFEF718FA8F
:101D4000804600BFFEF7E4FE00BF3948046800BFCC
:101D5000FEF7F8FE00BF4046FEF70EFA00BF00BFD8
:101D600025E000BF00BFFEF703FA804600BFFEF784
:101D7000CFFE00BF00207434E06320602063A061C8
:101D8000A082E0826062A062FEF750FF2062743C95
:101D900004F160060020B081D4F8B84000BFFEF71F
:101DA000D1FE00BF4046FEF7E7F900BF00BF002CA0
:101DB000D7D100BF00BFFEF7DBF9804600BFFEF7BA
:101DC000A7FE00BF1B48056800BFFEF7BBFE00BFB3
:101DD0004046FEF7D1F900BF00BF16E000BF00BFCC
:101DE000FEF7C6F9804600BFFEF792FE00BF05F180
:101DF00020060020B081AD6900BFFEF7A3FE00BF42
:101E00004046FEF7B9F900BF00BF002DE6D1002023
:101E10003880BDE8F081000092000020A40000207E
:101E2000B8000020DC000020580000205C290020C1
:101E3000AC00002078000020F8B504460026694672
:101E4000364800F09FFCBDF8000018B1BDF8000056
:101E50002080F8BD6A460021022000F0EDFCBDF8AC
:101E6000000018B1BDF800002080F2E700BF00BFFD
:101E7000FEF77EF9064600BFFEF74AFE00BF0020CF
:101E80002749086000BFFEF75DFE00BF3046FEF741
:101E900073F900BF00BF0025224800682249096885
:101EA000884205D91F4800681F490968B0FBF1F551
:101EB00025B91C4800680A21B0FBF1F56A460021EB
:101EC000284600F0B9FC6946144800F023FABDF832
:101ED000000018B1BDF800002080BAE700BF00BFC5
:101EE000FEF746F9064600BFFEF712FE00BF0020CF
:101EF0000E4908600A4800680D49086001200D4934
:101F0000087000BFFEF71EFE00BF3046FEF734F932
:101F100000BF00BF0020208000BF9AE7982C00205F
:101F200094000020DC580008C4580008A4000020D9
:101F300098000020A000002010B50348006810B1F0
:101F400001480068804710BD440000202DE9FF4F84
:101F500087B004469246DDE914B6DDE91B85179F7C
:101F6000002003906448007828B147F24A10288086
:101F70000BB0BDE8F08F1CB947F2AD102880F7E731
:101F8000BAF1000F03D147F24F102880F0E71EB9D5
:101F900046F62F602880EBE758480068874203D256
:101FA00046F630602880E3E71698B84203D346F639
:101FB00031602880DCE7BBF1200F03D346F27320A9
:101FC0002880D5E7BBF11F0F06D14D48844203D0CE
:101FD00046F273202880CBE7204601F043FC002026
:101FE000288008F0010010B908F0020088B108F05C
:101FF000020070B1B1460020069007E00020C9F849
:10200000000009F104090698401C06900698B842A1
:10201000F4D3169806EB80000490CDE900783246A0
:102020005046049B0A9900F04BFB8146B14503D210
:1020300046F62C6028809BE7C4F828A00A98E06246
:102040000898A06084F837B084F838B0C4F80090DD
:102050000498E0601A98606066622764A4F844807F
:102060000020059009E0002204F17800059940F86D
:1020700021200598401CC0B2059005980028F2D098
:1020800004F16000189900F04DFE204600F03EF883
:1020900000BF00BFFEF76CF8039000BFFEF738FDED
:1020A00000BF94F8370000F0FBFF204601F064F811
:1020B000204601F0AFFB13480088401C11490880FE
:1020C00011480078012809D000BFFEF73BFD00BF92
:1020D0000398FEF751F800BF00BF49E700BFFEF7C5
:1020E00031FD00BF0398FEF747F800BF00BFFFF7C0
:1020F00075FB00BF3CE7000054000020D8580008E2
:102100009C280020B00000205C00002010B5044690
:102110000348006818B1204601490968884710BD86
:10212000340000202DE9F05F80460F4616461C461D
:102130000A9D4FF0000B7448007828B146F2AE10AB
:1021400028800020BDE8F09F26B946F2D5202880DF
:102150000020F7E71FB1B7F5004F02D100E000BF44
:1021600004E045F6256028800020EBE700BF0CB1B5
:102170000020206000BF00BFFDF7FAFF834600BFCC
:10218000FEF7C6FC00BF6148006800F160092B46FD
:1021900022463146484600F091FD8246288800BB21
:1021A000A4B1FEF743FD2168401A58490968086741
:1021B00056480068406F55490968096F884205D242
:1021C00052480068006F51490968486700BFFEF730
:1021D000B9FC00BF5846FDF7CFFF00BF00BF504617
:1021E000B0E707F4004068B146F2B010288000BFA5
:1021F000FEF7A8FC00BF5846FDF7BEFF00BF00BFBA
:1022000000209FE74248007868B100BFFEF79AFCC3
:1022100000BF5846FDF7B0FF00BF00BF46F6635051
:10222000288000208EE7434602220021084600F065
:10223000C1FD00BFFEF786FC00BF5846FDF79CFFBE
:1022400000BF00BFFFF7CAFA00BF00BFFDF790FF55
:10225000834600BFFEF75CFC00BF2C48006890F886
:10226000350020B101282AD0032832D132E0274896
:102270000068D0F858A025480068B0F85C003080AD
:10228000D4B122480068806C2060FEF7CFFC1F4963
:102290000968896C401A1D49096808671B4800686D
:1022A000406F1A490968096F884205D217480068CB
:1022B000006F1649096848670020288017E04FF032
:1022C000000A0020308004B1206046F2A910288066
:1022D0000DE000BF4FF0000A002030801CB10B4819
:1022E0000068806C206047F2D920288000BF00BFC2
:1022F00000BFFEF727FC00BF5846FDF73DFF00BFBB
:1023000000BF50461EE7000054000020EC000020F3
:102310007E00002070B504460D460026184800785F
:1023200018B147F25510288070BD00BF00BFFDF7FF
:102330001FFF064600BFFEF7EBFB00BF1CB11148B4
:10234000006884420CD100BFFEF7FCFB00BF3046A2
:10235000FDF712FF00BF00BF47F257102880E3E7E8
:1023600000BFFEF7EFFB00BF3046FDF705FF00BFE3
:1023700000BF2946204601F0D3FA00BFD4E7000091
:1023800054000020EC00002010B50446034800680B
:1023900018B1204601490968884710BD3C0000205B
:1023A0002DE9F04780460E4614461D464FF00009C1
:1023B0007748007828B146F2AE1028800020BDE8AA
:1023C000F0871EB1B6F5004F02D100E000BF04E077
:1023D00045F6256028800020F1E700BF00BF00BF60
:1023E000FDF7C6FE814600BFFEF792FB00BF6948BD
:1023F0000068C06CB8B367480068C06C401E65498F
:102400000968C86463480068C76C1CB1614800680B
:10241000806C2060FEF70AFC5E490968896C401AEE
:102420005C490968C1F8A0005A480068D0F8A400C7
:1024300058490968D1F8A010884207D25548006869
:10244000D0F8A00053490968C1F8A40000BFFEF706
:1024500079FB00BF4846FDF78FFE00BF00BF00209C
:1024600028803846ABE7FFE706F4004080B100BFA4
:10247000FEF768FB00BF4846FDF77EFE00BF00BFC9
:102480000CB10020206046F2B0102880002096E7B2
:102490004148007880B10CB10020206000BFFEF7F9
:1024A00051FB00BF4846FDF767FE00BF00BF46F680
:1024B00063502880002082E7434607220021084617
:1024C00000F078FC00BFFEF73DFB00BF4846FDF77B
:1024D00053FE00BF00BFFFF781F900BF00BFFDF74B
:1024E00047FE814600BFFEF713FB00BF2948006886
:1024F00090F8350020B1012826D0032834D12CE0F3
:10250000FCB124480068806C2060FEF78FFB2149F5
:102510000968896C401A1F490968C1F8A0001D4864
:102520000068D0F8A4001B490968D1F8A0108842BF
:1025300007D218480068D0F8A00016490968C1F809
:10254000A4000020288013E01CB112480068806CB1
:10255000206046F2A91028800AE00CB1002020601B
:1025600047F2D920288003E046F62E60288000BF7D
:1025700000BF08480068C76C00BFFEF7E3FA00BF61
:102580004846FDF7F9FD00BF00BF384617E70000D9
:1025900054000020EC0000207E0000202DE9F041D6
:1025A00006460D4614461DB1B5F5004F02D100E0B8
:1025B00000BF05E045F6256020800020BDE8F081E1
:1025C00000BFFEF733FB804623464246294630468D
:1025D00001F046FA07463846F0E700002DE9F047DB
:1025E00005460E4617461C464FF0000A3248007852
:1025F00020B147F259102080BDE8F0871EB946F29D
:10260000D5202080F8E71FB946F2D5202080F3E7D7
:1026100000BF00BFFDF7ACFD824600BFFEF778FAB1
:1026200000BF0DB925480568286878B900BFFEF7D6
:1026300089FA00BF5046FDF79FFD00BF00BF002094
:102640003060386047F252102080D5E795F844009A
:1026500000F0010078B900BFFEF774FA00BF5046E1
:10266000FDF78AFD00BF00BF00203060386047F2F0
:1026700054102080C0E700BFFEF764FA00BF504648
:10268000FDF77AFD00BF00BF4FF00008D5F8249099
:1026900003E009F1040908F10108D9F80000002855
:1026A000F7D0C6F80080286CA0EB08003860002046
:1026B000208000BFA0E7000054000020EC000020B4
:1026C000F0B50446DDE9055602EB850020F0070071
:1026D0004FF0807C071F3846C7F800C0071F3846F8
:1026E0003C60DFF89CC0071F3846C7F800C04FF0B9
:1026F000123C071F3846C7F800C04FF0033C071FC5
:102700003846C7F800C04FF0023C071F3846C7F8EC
:1027100000C0071F38463B60071F384639604FF03E
:10272000113C071F3846C7F800C04FF0103C071F88
:102730003846C7F800C04FF0093C071F3846C7F8B5
:1027400000C04FF0083C071F3846C7F800C04FF0E4
:10275000073C071F3846C7F800C04FF0063C071F6C
:102760003846C7F800C04FF0053C071F3846C7F889
:1027700000C04FF0043C071F3846C7F800C0F0BD4A
:102780003D3A000870B505460C460A48007818B175
:1027900047F25D10208070BD0748854203D147F2A3
:1027A0005B102080F7E72146284601F051FA00BF70
:1027B000F1E70000540000209C28002070B51B4861
:1027C000006810B1194800688047FEF72FFA0446E8
:1027D0001748006817490968884215D014480068EE
:1027E000D0F89400201A12490968C1F890001048E6
:1027F0000068D0F898000E490968D1F89010084494
:102800000B490968C1F898000A480068C0F894406C
:10281000FEF752F9054606480068D0F8B000A84215
:1028200003D203480068C0F8B05070BD48000020D3
:10283000EC000020F00000202DE9F04105460E4696
:10284000144600272848007820B147F275202080E0
:10285000BDE8F0812548007818B146F66350208025
:10286000F6E736B1022E05D0042E0AD0082E09D183
:1028700001E000BF00BF1DB947F27E202080E7E7DE
:1028800004E003E045F625602080E1E700BF00BFDB
:1028900000BFFDF76DFC074600BFFEF739F900BF2A
:1028A0002346324629461248006801F0D9FA2088AA
:1028B00048B100BFFEF746F900BF3846FDF75CFCA3
:1028C00000BF00BFC4E70A48006800F073FC00BF07
:1028D000FEF738F900BF3846FDF74EFC00BF00BFD9
:1028E000FEF77CFF00BFB3E7540000207E0000200D
:1028F000EC00002008B50F480078012800D008BD82
:1029000000F022F86A4600210B48FFF747FE0B480B
:102910000068401E094908600846006840B9084838
:10292000006808606A4600210648FFF737FE00BFCE
:1029300000BFE4E75C000020A82B0020E800002096
:10294000E4000020982C002010B50348006810B166
:1029500001480068804710BD4C00002010B50024DD
:1029600000BF00BFFDF704FC044600BFFEF7D0F82F
:1029700000BFFEF77DFC00BFFEF7E4F800BF204675
:10298000FDF7FAFB00BF00BFFFF7B4FFFEF786FCC0
:1029900010BD000001464A1E4FF0E0235A61084A6C
:1029A000106820F07F4000BF10601A46126942F0A4
:1029B00005021A611A46126942F002021A61704752
:1029C00020ED00E0244A2549254A264A2649274A7F
:1029D0002748284A284A294A294A2A482A482B4A65
:1029E0002B482C4A2C482D4A2D482E482E482F483B
:1029F0002F4A304A304A3148314A324A3248334805
:102A000033483448344835483548364A364A374AD8
:102A1000374A384838483948394A3A4A3A4A3B48A6
:102A20003B483C483C493D483D4A3E4A3E4A3F4A75
:102A30003F4A404A404A4148414A424A4248434844
:102A4000434A444A4448454A454A4648464800BFE6
:102A500000BF00BF7047000010590008785A0008F6
:102A60001159000812590008145900081859000893
:102A70001C59000819590008445900084559000814
:102A800046590008485900084A5900084E5900089C
:102A9000505900087059000872590008745900080C
:102AA00076590008785900087A5900087C590008BE
:102AB000AC590008AD590008AE590008B0590008DB
:102AC000B2590008B3590008B4590008B6590008B3
:102AD000B8590008BA590008BC590008BE59000886
:102AE000C0590008F0590008F1590008F2590008CF
:102AF000F3590008F4590008F6590008F85900087D
:102B0000205A0008215A0008225A0008235A0008B7
:102B1000245A0008265A0008285A00082C5A00088F
:102B20002D5A00082E5A00082F5A0008305A000863
:102B3000315A0008325A0008335A0008345A000843
:102B4000365A0008375A0008385A00083A5A00081E
:102B50003C5A00083D5A0008405A0008705A0008C4
:102B6000715A0008725A0008745A000800241DE0C7
:102B700000BF00BFFDF7FCFA044600BFFDF7C8FF29
:102B800000BF0B480068401C0949086009480068FC
:102B9000401C0849086000BFFDF7D4FF00BF204675
:102BA000FDF7EAFA00BF00BFFEF78EFAE0E700008B
:102BB000500000209400002010B58AB00446002088
:102BC0000E4908600B2000210591CDE9070406910C
:102BD00008460B4909680B4A12680B4B1B68CDE984
:102BE0000132CDE903101F200023084A08A10090FC
:102BF0000C48FFF7ABF90AB010BD000050000020F0
:102C000084580008805800087C5800086D2B000884
:102C100075432F4F532D4949492049646C65205411
:102C200061736B009C2800200021034A1160034A55
:102C30001180018070470000680000206C000020B7
:102C400070B501461A4D2D681DB945F21E750D80EF
:102C500070BD184D2D881DB945F21D750D80F7E723
:102C6000134D28682A681032124D2D886D1EACB2A3
:102C7000002308E00260002545600581C560103032
:102C800010325D1CABB2A342F4DB00250560456049
:102C90000581C560064D2D68074E3560054D2D88B0
:102CA000B5800025F58035810D8000BFD0E700009C
:102CB000BC580008B45800085C290020F0B5044650
:102CC0000D46608940B90020288002B1106046F2AC
:102CD000925018800020F0BD61684E6808892880F5
:102CE0000AB1C868106008686060606818B90020A0
:102CF0002060608102E06089401E608108480068B1
:102D00000860074801608088401C054FB88038463D
:102D1000C088401EF880002018803046DBE70000A5
:102D20005C29002001810022428182810260426090
:102D30007047000009A1C16100214161084909688B
:102D400011B90021816105E00549096881610449E3
:102D500009684861024908607047000020000000CF
:102D600070000020C26B0A62C163704730B5044630
:102D70001F2004F13C010BE00D68AB682BB19D688E
:102D800095F83720824200DA10460D6805F12001DF
:102D90000D68002DF0D130BD024602F13C0002E08A
:102DA000036803F1200003688B42F9D103681B6AB2
:102DB000036070472DE9F04105460C4616461F4654
:102DC0001348006880F8346000201149096881F8D0
:102DD000350039460E48006800F090FC6CB104F1F3
:102DE0000808EC60012229460948006800F012F842
:102DF0002946404600F079F803E0002004490968BC
:102E0000086303480168204600F00EF8BDE8F08131
:102E1000EC000020016300234B600B600B614B61F1
:102E20000B83CB618860704730B548B14568C1F805
:102E3000BC5000F10804226893689D68C56113E0E6
:102E400091F83450022D02D0072D08D103E007A5D8
:102E5000C1F8BC5007E007A5C1F8BC5003E008A5C5
:102E6000C1F8BC5000BF00BF30BD00005461736B9F
:102E7000205100005461736B2053656D0000000009
:102E80002000000030B507A5C1F8BC5000F10804CF
:102E900022681AB193689D68C56101E001A5C5610A
:102EA00030BD0000200000002DE9F0410646346BE3
:102EB000012711E0D4F80C8008F108052868406863
:102EC00038B12146284600F05CF82146284600F03B
:102ED0000CF82034781E87B2002FEBD1BDE8F081CA
:102EE00000210160416001817047F0B58E6896F85D
:102EF000375007683FB90127078100274F600F60EF
:102F00000160416023E007897F1C0781026806E0B9
:102F1000946894F83770AF4200DD02E05268002AEE
:102F2000F6D100BF32B900274F6043680B6059608B
:102F300041600CE017682FB9116000270F604A60EC
:102F4000016004E013680B604A6059601160F0BDD5
:102F50002DE9F0410446206B88B1256B01260AE07B
:102F6000D5F80C8008F108072946384600F009F822
:102F70002035701E86B2002EF2D100202063BDE8FD
:102F8000F08110B5046864681CB9002404604460D2
:102F900011E00C6824B94B6800241C6003600AE04F
:102FA0004C6824B90A6800245460426003E00A684F
:102FB0004B6853601A600489641E048100244C60CD
:102FC0000C6010BD2DE9F04105460C4616461F4623
:102FD000DDF8188094F83600082845D2DFE800F0C4
:102FE000040508090607272800BF00BF00BF3CE012
:102FF00000BFA665A4F85C70C4F8488035B12046CF
:10300000FFF7A6FF21462846FFF73CFF94F836005D
:10301000032802D1204600F077FF204600F076F822
:1030200000203434A070607004F834091DE000BF43
:10303000A665A4F85C70C4F8488035B12046FFF757
:1030400087FF21462846FFF71DFF94F83600072822
:1030500002D1204600F058FF04203434A070002034
:10306000607004F8340900E000BF00BFBDE8F081E3
:1030700070B50024034D2868FDF785F82044C4B2DC
:10308000204670BD30000020002004E00021034AEB
:1030900042F82010401C0028F8D070473000002073
:1030A00030B5002203460121C3F11F04A140044CA6
:1030B00054F822400C43024D45F8224030BD000038
:1030C0003000002030B5002203460121C3F11F0467
:1030D000A140044C54F822408C43024D45F8224054
:1030E00030BD000030000020002109E001EB41026A
:1030F000054B03EB82000022028102604260491C02
:103100002029F3D3704700006829002010B5044639
:1031100094F83700FFF7C4FF94F8370005490978A1
:10312000884203D1204600F027F802E0204600F054
:1031300003F810BD7600002010B590F8373003EB8F
:1031400043030C4C04EB83010B683BB901230B8157
:103150000023036143610860486009E00B895B1C40
:103160000B810B680361002343610A6850610860AA
:1031700010BD00006829002010B590F8373003EB2F
:1031800043030B4C04EB83010B683BB901230B8118
:103190000023036143610860486008E00B895B1C01
:1031A0000B81002303614A6842611061486010BDD1
:1031B000682900202DE9F041054695F8370000EB1D
:1031C0004000124901EB80046F692E6987B946B946
:1031D000002020812060606095F83700FFF772FFC3
:1031E0000EE02089401E208100207061266007E0EB
:1031F0002089401E20813E610EB9676000E0776142
:10320000002068612861BDE8F08100006829002085
:1032100009A1C161002141610849096811B9002172
:10322000816105E0054909688161044909684861CF
:103230000249086070470000200000008000002064
:103240002DE9FE4F04460F4690461D460020019092
:1032500000BF00BFFCF78CFF019000BFFDF758FCDA
:1032600000BF04F10809D9F8000028BB206A401CFF
:1032700070B900BFFDF766FC00BF0198FCF77CFF4A
:1032800000BF00BF46F6C55028800020BDE8FE8F75
:10329000206A401C2062D4F820A0C4F8248000BF1B
:1032A000FDF750FC00BF0198FCF766FF00BF00BFB0
:1032B000002028805046E9E7D9F8006010E0B068A7
:1032C0000290D6F804B000231A46CDF800802046BC
:1032D0000299FFF777FE07F4007000B902E05E463E
:1032E000002EECD100BF00BFFDF72CFC00BF019801
:1032F000FCF742FF00BF00BF07F4004008B9FEF72B
:103300006DFA0020288000BFC0E7000086B00020D2
:10331000009006E0B6490968480001AA0021FFF7BD
:103320008BFAB44800780128F4D101A8FEF7E0FC3C
:103330000027B1480068AE490968884205D9AE48FF
:103340000068AB490968B0FBF1F727B9AA480068E3
:103350000A21B0FBF1F749E1FDF768FC8246FDF771
:10336000C1FBA649086000BF00BFFCF701FF009049
:1033700000BFFDF7CDFB00BFA1480068A149086070
:1033800000209F49086000BFFDF7DCFB00BF0098EC
:10339000FCF7F2FE00BF00BF9B480068994909682E
:1033A000884248D9984800689849884205D242F234
:1033B000107003900120029023E093480068944924
:1033C000884205D24FF47A7003900A20029018E0E8
:1033D0008D4800688F49884203D264200390029090
:1033E0000FE0894800688C49884205D20A20039082
:1033F0004FF47A70029004E00120039042F21070C2
:103400000290814801680298B1FBF0F97D49039868
:1034100009684843B0FBF9F042F21071081A7F497D
:1034200008807F4800880988884207DA7B4800883E
:103430007B49088002E0002078490880FEF77CFD87
:10344000002500BF00BFFCF793FE009000BFFDF712
:103450005FFB00BF7348046800BFFDF773FB00BF4C
:103460000098FCF789FE00BF00BF2EE000BF00BF40
:10347000FCF77EFE009000BFFDF74AFB00BF54F84A
:10348000980F6060002044F8980900BFFDF75AFBD0
:1034900000BF0098FCF770FE00BF00BFD4F89C008E
:1034A000054400BF00BFFCF763FE009000BFFDF7BE
:1034B0002FFB00BFD4F8B84000BFFDF743FB00BFAF
:1034C0000098FCF759FE00BF00BF002CCED145B3D9
:1034D0004E48854205D242F2107005904FF0010B24
:1034E0001BE04B48854205D24FF47A7005904FF0AF
:1034F0000A0B12E04748854203D2642005908346B8
:103500000BE04548854204D20A2005904FF47A7BAF
:1035100003E00120059042F2107BB5FBFBF0049024
:1035200003E0002005900120049000BF00BFFCF7DD
:103530001FFE009000BFFDF7EBFA00BF394804689A
:1035400000BFFDF7FFFA00BF0098FCF715FE00BFB3
:1035500000BF2FE0D4F89C00059948430499B0FBC4
:10356000F1F086B242F21070864200D90646A4F805
:103570008860B4F88A00B04201DAA4F88A6001AB2E
:1035800004F1A802111D2046FFF728F800BF00BF74
:10359000FCF7EEFD009000BFFDF7BAFA00BFD4F8CB
:1035A000B84000BFFDF7CEFA00BF0098FCF7E4FD7D
:1035B00000BF00BF002CCDD11B480078012805D1E9
:1035C00000201949087001A8FEF792FBFDF72EFBB9
:1035D000A0EB0A0815480068404502D21348C0F81D
:1035E000008001AA00213846FFF726F9B4E6000062
:1035F000C4580008A0000020DC5800085800002033
:10360000940000209C00002098000020801A0600F2
:1036100000093D00005A62020084D7179000002084
:1036200092000020AC0000208E000020A4000020AA
:1036300010B58AB0044600201F4908601F49086081
:103640001F4908601F4908701F4908701F4800681B
:1036500020B946F62B6020800AB010BD1C480068D7
:103660001C490968884203D246F62C602080F3E7A3
:10367000194800781F2803D346F62A602080EBE71C
:10368000032000210591CDE9070406910846104961
:103690000968124A12680D4B1B68CDE90132CDE969
:1036A00003100D48007800230D4A0EA10090124827
:1036B000FEF74CFC00BFCFE7940000209C000020E8
:1036C00098000020A00000208E000020C8580008AC
:1036D000D0580008D8580008C0580008CC58000836
:1036E0000D33000875432F4F532D4949492053741A
:1036F0006174205461736B00E82A002070B50446A1
:103700000D4645B12A462146064800F065FB0320D8
:1037100084F8360002E0022084F836002046FFF7E5
:1037200049FD70BDC40000202DE9F04104460D465E
:1037300000BF002694F8377094F8360008285ED24F
:10374000DFE800F004191E1F1A1B20212046FFF796
:1037500031FD84F8375094F83700FFF7A1FC2C486E
:103760000068844203D12046FFF7E6FC02E02046D1
:10377000FFF702FD45E000BF00BF84F8375040E08E
:1037800000BF00BF00BF84F8375094F83400082809
:1037900030D2DFE800F02F04302F0A05063100BFD9
:1037A00000BF2046FFF780FB27E02046FFF77CFBA9
:1037B000206BC068466AAF4205DD96F83700A84224
:1037C00017DC002615E096F83700B84211D13046D4
:1037D000FFF7CCFA054696F83800A84202DA96F8C8
:1037E000380000E02846054696F83700A84200D188
:1037F000002602E000BF00BF00BF00BF01E0BDE83F
:10380000F08100BF3446002C93D100BFF7E70000E1
:10381000EC0000200021C0F8B4100949096819B96A
:103820000021C0F8B81007E005490968C0F8B810D1
:1038300003490968C1F8B4000149086070470000F5
:10384000AC0000200021044A1160044A1180044A9F
:103850001160018070470000AC000020B000002023
:10386000A800002070B5044600202060E060606081
:1038700020616061A061E061206226A0A06000205C
:103880006062A062E062A064A065A4F85C00002110
:1038900004F16000FFF746FA002020676067E067E8
:1038A000A4F88400C4F88000002506E0002104F19B
:1038B000780040F82510681CC5B2002DF6D0002015
:1038C0003434A061E0662067E06084F85200A067AD
:1038D00060672082E0612062A4F85400A4F85600DA
:1038E000A065E065FDF7A2F9206600206066E0674C
:1038F00020706070A0702020E07020710020A06017
:10390000C4F88000C4F8840004A0C4F88800343CE3
:1039100070BD00003F5461736B0000002000000088
:1039200070B504460D46002600BF00BFFCF720FC22
:10393000064600BFFDF7ECF800BF0020288094F891
:103940003600082868D2DFE800F004050607142BCB
:103950003F5300BF00BF00BF00BFFDF7F3F800BF3B
:103960003046FCF709FC00BF00BF47F25310288027
:103970005FE014F8860F401E207014F8860928B9FD
:10398000002084F836002046FFF7C0FB00BFFDF79B
:10399000D9F800BF3046FCF7EFFB00BF00BF48E09E
:1039A00014F8860F401E207014F8860910B9012003
:1039B00084F8360000BFFDF7C5F800BF3046FCF7BD
:1039C000DBFB00BF00BF34E014F8860F401E207000
:1039D00014F8860910B9022084F8360000BFFDF7FC
:1039E000B1F800BF3046FCF7C7FB00BF00BF20E0C6
:1039F00014F8860F401E207014F8860910B90320B1
:103A000084F8360000BFFDF79DF800BF3046FCF794
:103A1000B3FB00BF00BF0CE000BFFDF793F800BF91
:103A20003046FCF7A9FB00BF00BF46F62D6028809A
:103A300070BD00BFFDF7D2FE00BFF9E708B506482C
:103A40000068FEF7A1FC06E06A4600210348006812
:103A5000FEF7F2FE00BFF7E7EC000020DC5800089C
:103A60002DE9F8430446884617461D464FF00009E5
:103A700000BF00BFFCF77CFB814600BFFDF748F8A4
:103A800000BF0CB971480468A7640020288094F82E
:103A90003600082878D2DFE800F0040558590607F8
:103AA0005A5B00BF00BF00BF0420012804D00228D9
:103AB00015D0042839D126E0E06CFF280ED100BFD4
:103AC000FDF740F800BF4846FCF756FB00BF00BFBB
:103AD00046F6C55028800020BDE8F88326E04FF662
:103AE000FF71E06C88420DD100BFFDF72BF800BFDD
:103AF0004846FCF741FB00BF00BF46F6C550288092
:103B00000020E9E712E0E06C401C68B900BFFDF757
:103B100019F800BF4846FCF72FFB00BF00BF46F670
:103B2000C55028800020D7E700E000BF00BFE06C50
:103B3000401CE064E66C00BFFDF704F800BF484697
:103B4000FCF71AFB00BF00BF7DE000BF00BF00BF55
:103B500094F83400072818D100231A462146184645
:103B60000097FFF72FFAE66C00BFFCF7EBFF00BFF2
:103B70004846FCF701FB00BF00BF08F400400028E6
:103B800052D1FDF72BFE4FE04FE00420012804D076
:103B9000022814D0042838D125E0E06CFF280DD18C
:103BA00000BFFCF7CFFF00BF4846FCF7E5FA00BFB7
:103BB00000BF46F6C550288000208DE726E04FF66E
:103BC000FF71E06C88420DD100BFFCF7BBFF00BF66
:103BD0004846FCF7D1FA00BF00BF46F6C550288022
:103BE000002079E712E0E06C401C68B900BFFCF7E8
:103BF000A9FF00BF4846FCF7BFFA00BF00BF46F66A
:103C0000C5502880002067E700E000BF00BFE06CDF
:103C1000401CE064E66C00BFFCF794FF00BF484620
:103C2000FCF7AAFA00BF00BF0DE000BFFCF78AFF57
:103C300000BF4846FCF7A0FA00BF00BF46F62D6063
:103C40002880002600BF00BF304645E7EC0000207A
:103C500070B504460D46002600BF00BFFCF788FA89
:103C6000064600BFFCF754FF00BF94B957480078E0
:103C700001280CD000BFFCF765FF00BF3046FCF701
:103C80007BFA00BF00BF45F68960288070BD5048B0
:103C900004684F48006884420FD14E48007860B1F4
:103CA00000BFFCF74FFF00BF3046FCF765FA00BFCE
:103CB00000BF46F663502880E8E70020288094F88B
:103CC000360008286BD2DFE800F004172737474892
:103CD000494A042084F83600012084F886002046F2
:103CE000FFF768FA00BFFCF72DFF00BF3046FCF776
:103CF00043FA00BF00BF5FE0052084F836000120D2
:103D000084F8860000BFFCF71DFF00BF3046FCF7BB
:103D100033FA00BF00BF4FE0062084F836000120D0
:103D200084F8860000BFFCF70DFF00BF3046FCF7AB
:103D300023FA00BF00BF3FE0072084F836000120CF
:103D400084F8860000BFFCF7FDFE00BF3046FCF79C
:103D500013FA00BF00BF2FE000BF00BF00BF94F800
:103D60008600FF280CD100BFFCF7ECFE00BF3046F8
:103D7000FCF702FA00BF00BF47F26010288085E719
:103D800094F88600401C84F8860000BFFCF7DAFE39
:103D900000BF3046FCF7F0F900BF00BF0CE000BFE9
:103DA000FCF7D0FE00BF3046FCF7E6F900BF00BFCD
:103DB00046F62D60288069E700BF04480078012896
:103DC00001D1FDF70BFD00BF60E700005C000020A3
:103DD000EC0000207E00002070B51546066846B94C
:103DE0000D6500268E61CE61086201600126868025
:103DF00033E0046802682B4624E0166D9E421DD312
:103E0000D6696EB90B650026CE618A610862166DAF
:103E1000F61A1665D16101608688761C86800CE0F2
:103E2000D4690B65CC618A610862166DF61A166555
:103E3000D161A1618688761C868070BD166D9B1B42
:103E400014469269002AD8D10B65CC6100268E6198
:103E50000862A1618688761C868000BFEDE70000BD
:103E60002DE9F04304460D469146984624480768DC
:103E7000B9F1040F0CD1EE1B16F5803F00D866BBDC
:103E80000020206547F27E20A8F80000BDE8F083FE
:103E9000B9F1080F22D1606D381AA84203D92E4615
:103EA000781960651BE0606D381A2E1A16F5803F90
:103EB00000D87EB9606D381AB0FBF5F005FB0050F4
:103EC000616D084460650020206547F27E20A8F8F7
:103ED0000000DBE7606D2844606500E02E460020AE
:103EE000A8F80000012084F8360005480068381A58
:103EF000821921460348FFF76FFF00BFC6E70000A5
:103F0000B4000020BC00002030B5026AC36981699A
:103F1000ABB929B9002414609480046504621EE0E2
:103F20000024CC610C6D056D2C440C6511609488E7
:103F3000641E948000248461046504620FE099612A
:103F400021B1CB610C6D056D2C440C650024C4615E
:103F50009488641E9480002484610465046230BDEA
:103F60002DE9F0470546FCF761FE81464FF0000859
:103F7000244E3468002C3CD0206DA84204D8206D1B
:103F80002D1A0020206502E0206D401B20652CE0EA
:103F900008F101001FFA80F894F83600012806D1D4
:103FA000002084F836002046FFF7B0F806E094F8C9
:103FB0003600052802D1042084F83600A06930605C
:103FC000346814B90020B08012E0B088401EB08080
:103FD0000020E061206DA84204D8206D2D1A002039
:103FE000206502E0206D401B2065206D0028CFD0A9
:103FF00000BFA6F80680FCF719FEA0EB09073846BB
:10400000BDE8F087BC0000202DE9F05F0646FCF714
:104010000DFE83464FF0000A424F3C68002C77D0DB
:10402000206DB04204D8206D361A0020206502E0D1
:10403000206D801B206567E00AF101001FFA80FAFD
:10404000002594F83400042802D1206BC068456A2A
:104050000020A065A4F85C00FCF7E8FDA064204601
:10406000FEF776FF94F83600032806D12046FFF7C6
:104070004DF8002084F8360006E094F83600072852
:1040800002D1042084F83600032084F83500002093
:1040900084F8340005B395F8370095F83810884255
:1040A0001AD095F8370094F83710884214D1284672
:1040B000FEF75CFE804695F83800404502DA95F838
:1040C000380000E04046804695F83700404503D070
:1040D00041462846FFF728FBA06938603C6814B9C0
:1040E0000020B88013E0B888401EB8800020E0614E
:1040F000206DB04205D8206D361A0020206503E0FF
:1041000006E0206D801B2065206D002894D000BF44
:10411000A7F806A0FCF78AFDA0EB0B094846BDE80E
:10412000F09F0000C400002008B54FF000082FE009
:104130006B46002211461046FEF732F9BDF800002A
:1041400030BB00BF00BFFCF713F8804600BFFCF790
:10415000DFFC00BF01270F480068401C0D490860C4
:104160003846FFF7FDFE06463846FFF74DFF054689
:10417000741909480068A04201D20748046000BFD2
:10418000FCF7E0FC00BF4046FBF7F6FF00BF00BFB6
:10419000CEE70000B4000020B800002010B58AB0BF
:1041A0000446002020490860204908602049086032
:1041B0001E498880C8801E498880C8801D480068C4
:1041C00020B947F2122020800AB010BD1A480068BA
:1041D0001A490968884203D247F213202080F3E786
:1041E000174800781F2803D347F211202080EBE7FF
:1041F0000B2000210591CDE90704069108460E49E0
:104200000A68104909680B4B1B68CDE90131CDE9FB
:1042100003200B48007800230B4A0CA100901048A3
:10422000FDF794FE00BFCFE7B4000020BC000020E3
:10423000C4000020E4580008EC580008D8580008D2
:10424000E0580008E85800082941000875432F4F3E
:10425000532D494949205469636B205461736B00A5
:10426000A82B002010B58AB0044600202F49086012
:104270002F4908602F4908802F48006840B12F4817
:1042800000682D490968B0FBF1F02D49086006E08F
:104290002A4800680A21B0FBF1F029490860284843
:1042A00000682849086000202749086027490860FD
:1042B000224627A12A48FDF761F8208808B10AB0F4
:1042C00010BD2848006818B947F247302080F6E74B
:1042D0002548006825490968884203D247F24830DA
:1042E0002080ECE7224800781F2803D347F24630AD
:1042F0002080E4E70B20002105910A46CDE9070460
:104300000691194800681B490968164B1B68CDE9DE
:104310000131CDE90302164800780023164A17A19F
:1043200000901C48FDF712FE00BFC8E7CC0000203B
:10433000D4000020D0000020F8580008DC58000805
:10434000E4000020E8000020E0000020DC00002065
:104350004F5320546D72204D757465780000000035
:10436000682C0020FC58000804590008D8580008A0
:10437000F458000800590008B143000875432F4F56
:10438000532D4949492054696D6572205461736BFE
:1043900000000000982C00200EB502A801AB0022FE
:1043A000114600900148FDF72DF80EBD682C002045
:1043B0001CB53FE001AB6A4600210846FDF7F0FF5F
:1043C000FFF7EAFFFCF732FC06461B480068401C7A
:1043D00019490860194804681FE001A8FDF752FA5E
:1043E000D4F81080A069401EA061A06980B9A08C9B
:1043F000022802D1206AA06105E0204600F022F8E0
:10440000032084F82600A56815B12046E168A84776
:10441000444601A8FDF772FA00BF002CDDD1FCF77D
:1044200005FC871B06480068B84201D204480760B3
:1044300000F02AF8BEE70000E0000020D4000020D1
:10444000DC00002010B50E4B1B68834206D10169C9
:104450000B4B196039B100234B6104E041690269DB
:104460000A6102B15161012380F826300023036103
:104470004361044B1B885B1E024C238010BD00006F
:10448000D4000020D000002008B56A460021024870
:10449000FDF7CCF808BD0000682C002029B1064AC1
:1044A00092690243044B9A6104E0034A9269824391
:1044B000014B9A61704700000010024030B50021A6
:1044C0000022002400232D4D6D6805F00C0121B160
:1044D000042905D0082923D105E0294D056022E0F3
:1044E000274D05601FE0254D6D6805F47012234DC2
:1044F0006D6805F48034022505EB92421CB9214D0C
:10450000554305600BE01D4D6D6805F400351DB188
:104510001C4D5543056002E0194D5543056002E00E
:10452000174D056000BF00BF144D6D6805F0F00128
:104530000909154D6B5C0568DD4045600F4D6D68E0
:1045400005F4E061090A104D6B5C4568DD4085604B
:104550000A4D6D6805F46051C90A0B4D6B5C4568E6
:10456000DD40C560054D6D6805F44041890B074D80
:104570006B5CC568B5FBF3F5056130BD001002400A
:1045800000127A0000093D00000000201000002009
:1045900008B501210820FFF781FF03208DF80200F4
:1045A00010208DF803000420ADF800006946024891
:1045B000FCF751FB08BD0000000C0140704710B52E
:1045C00000F002F810BD00000CB500200190009032
:1045D0003348006840F480303149086000BF3048FB
:1045E000006800F4003000900198401C0190009891
:1045F00018B90198B0F5A06FF1D12948006800F40E
:10460000003010B10120009001E0002000900098DF
:10461000012843D12348006840F010002149086078
:104620000846006820F0030008600846006840F073
:10463000020008601A484068194948600846406806
:1046400048600846406840F480604860084640681A
:1046500020F47C1048600846406840F4E810486048
:104660000846006840F08070086000BF0C48006891
:1046700000F000700028F9D00948406820F00300DD
:10468000074948600846406840F00200486000BFA3
:104690000348406800F00C000828F9D10CBD000068
:1046A000001002400020024010B51348006840F09E
:1046B00001001149086008464068104908400E4949
:1046C0004860084600680E4908400B4908600846E3
:1046D000006820F4802008600846406820F4FE004E
:1046E00048604FF41F008860FFF769FF4FF00060DB
:1046F0000449086010BD0000001002400000FFF8EF
:10470000FFFFF6FE08ED00E010B5002400BF00BF7B
:10471000FBF72EFD044600BFFCF7FAF900BFFCF7DB
:10472000A7FD00BFFCF70EFA00BF2046FBF724FDF3
:1047300000BF00BF024800F0ECF8FCF7AFFD10BD71
:10474000D414002001F40072B2F5007F00D100BF44
:10475000CA430280704721B1828942F400528281AB
:1047600004E082894DF6FF731A4082817047024649
:104770000020B1F5007F00D100BF13880B400BB1C2
:10478000012000E00020704770B50246002400239D
:104790000025002040F66A16B14200D100BFC1F3E7
:1047A000421501F01F03012606FA03F3012D02D181
:1047B0009689334006E0022D02D1168A334001E08B
:1047C000968A33400C12012606FA04F41688344007
:1047D00013B10CB1012000E0002070BDF0B503461C
:1047E000002400260025002040F66A17B94200D1B7
:1047F00000BF1846C1F3421401F01F06012707FA53
:1048000006F5012C01D10C3004E0022C01D110304E
:1048100000E014301AB107682F43076002E0076810
:10482000AF430760F0BD00002DE9F04786B00546B4
:104830000E460024A24600BFA1460027B08900B161
:1048400000BF2F462C8A4CF6FF700440F0880443CA
:104850002C82AC894EF6F3100440B08831890843AD
:10486000718908430443AC81AC8A4FF6FF40044091
:10487000B0890443AC8201A8FFF720FE1F4887429D
:1048800002D1DDF810A001E0DDF80CA0A88900F449
:10489000004040B10AEBCA0000EB0A103168490041
:1048A000B0FBF1F807E00AEBCA0000EB0A10316830
:1048B0008900B0FBF1F86420B8FBF0F00401200996
:1048C000642101FB1089A88900F4004040B1322026
:1048D00000EBC900B0FBF1F000F00700044308E072
:1048E000322000EB09106421B0FBF1F000F00F0062
:1048F00004432C8106B0BDE8F08700000038014079
:1049000001468888C0F308007047C1F3080282801E
:10491000704770B5044640F225512068FFF734FF18
:10492000E0B12068FFF7ECFFC5B2E18AA06845540A
:10493000E08A401C80B2E082E189884201DB0020ED
:10494000E082608BE189884202DA608B401C6083E0
:10495000606A10B12846616A884700BF40F227713B
:104960002068FFF711FF08B3A08A60B9002240F267
:1049700027712068FFF732FF012240F2266120688C
:10498000FFF72CFF37E0638A6268D15C2068FFF78D
:10499000BCFF608A401C80B26082A189884201DB32
:1049A00000206082A08A401EA08224E040F226619E
:1049B0002068FFF7E9FEF0B1A08A50B9002240F26A
:1049C00026612068FFF70AFF206AA0B1206A8047AD
:1049D00011E0638A6268D15C2068FFF796FF608A05
:1049E000401C80B26082A189884201DB0020608285
:1049F000A08A401EA08270BD0A480B4908600B487F
:104A000048600B4888604FF480608881C88100202E
:104A100008824882C882088348838882C861086205
:104A20004862704700380140D4140020FC14002074
:104A3000FC18002000BFFEE70FB4054B10B503A91A
:104A4000044A029800F0F0F810BC5DF814FB000076
:104A5000F5570008F80000207CB5044600201D46EC
:104A6000164600290BD0491ECDE90041044B6A4689
:104A70002946304600F044F9009A002111707CBDAF
:104A80002F54000802E008C8121F08C1002AFAD1FA
:104A900070477047002001E001C1121F002AFBD1BE
:104AA000704700002DE9FF5F82B00021DDE904308E
:104AB000020DDDF840B0034318D044F61050A2F2C6
:104AC000FF3242431514119801281FD0A5EB0B00AB
:104AD000401C5FEA000A4FF000064E4FDFF83891A5
:104AE000B046504615D5CAF1000413E011980124D0
:104AF0004AA3012801D16FEA0B010298119AC0E97B
:104B00000031C0E9024206B0BDE8F09FCBF10000E1
:104B1000DFE704460021404A491842EB0450CDE942
:104B2000001012E0E00707D032463B4640464946B7
:104B3000FBF70CFC8046894632463B461046194638
:104B4000FBF704FC06460F466410002CEAD1DDE9B1
:104B50000401DDE90023BAF1000F06DAFBF7F6FBEA
:104B600042464B46FBF7F2FB05E0FBF761FC424691
:104B70004B46FBF75DFC04460E460022284BFBF734
:104B800083FD03D84FF0FF30014607E00022254B9C
:104B900020463146FBF733FBFBF75DFD102409E0AF
:104BA000002C0ADB0A220023FBF7F8FA039B3032C1
:104BB0001A55641E50EA0102F2D1641C039AC4F132
:104BC00011031444119A012A03D0012208430DD184
:104BD0000AE0084304D000204FF0110B119072E757
:104BE000A3EB0B056D1E0DE05B4504DD4FF00002ED
:104BF00005F1010504E003DA4FF00002A5F101051B
:104C0000002AECD002981199C0E90231C0E90045B0
:104C100079E70000000014400000F03F3000000081
:104C20000000F0430000E03F2DE9F84F994692461E
:104C300088460546002706E025280AD051464A4600
:104C400090476D1C7F1C28780028F5D13846BDE8B8
:104C5000F88F002315F8011F18462E2915D115F8D5
:104C6000011F04232A290DD06FF02F022978A1F10A
:104C70003004092C09D800EB800002EB4000084406
:104C80006D1CF3E758F8040B6D1C2A78002ADDD060
:104C9000632A07D0732A0FD0104651464A469047E0
:104CA0007F1C2AE018F8042B8DF8002000218DF8D5
:104CB00001106E46012103E058F8046B4FF0FF31FC
:104CC0005A074FF0000401D409E0641C84420BDA57
:104CD0008C42FADB325D002AF7D105E0641C8C427D
:104CE000FCDB305D0028F9D1274404E016F8010B05
:104CF00051464A469047641EF8D26D1CA3E7000057
:104D00002DE9FF4F95B09B468946064600250FE2E8
:104D1000252877D100242746F84A0121059400E090
:104D2000044316F8013F203B01FA03F01042F7D18B
:104D300030782A2811D06FF02F033078A0F130029C
:104D4000092A16D8059A44F0020402EB820203EB0A
:104D500042021044761C0590EFE759F8042B0592A7
:104D6000002A03DA504244F40054059044F002044F
:104D7000761C30782E2816D116F8010F44F0040462
:104D80002A280DD06FF02F023078A0F13003092BC4
:104D900009D807EB870302EB4303C718761CF3E738
:104DA00059F8047B761C30786C280FD006DC4C2830
:104DB00017D068280DD06A2814D104E0742810D0C8
:104DC0007A280FD10DE044F400140AE044F4801472
:104DD00001E044F440147278824202D104F5801458
:104DE000761C761C307866280BD013DC582877D0D8
:104DF00009DC002875D04528F6D04628F4D047288D
:104E00001AD19DE118E0632835D0642879D065284F
:104E100012D195E1702873D008DC6728F1D0692899
:104E20006FD06E280DD06F2806D1B5E073282CD036
:104E3000752875D0782874D05A46179990476D1CFC
:104E400075E1C4F30250022809D003280DD0D9F827
:104E5000001004280DD00D6009F1040967E1D9F8AC
:104E60000010EA17C1E90052F6E7D9F800100D80EA
:104E7000F2E70D70F0E719F8041B8DF80010002020
:104E80008DF80100EA46012003E059F804AB4FF029
:104E9000FF3061074FF0000102D40DE008F101017D
:104EA0008846B9420FDA8045F8DB1AF80810002965
:104EB000F4D108E008F1010188468142FADB1AF8D2
:104EC00008100029F6D105985B46A0EB080721469B
:104ED0003846179A00F094FA284400EB080507E0DA
:104EE0004DE029E10DE01AF8010B5A461799904759
:104EF000B8F10108F7D25B4621463846179A13E10C
:104F000042E00A220092C4F302524FF0000A022A41
:104F100008D059F804CB032A4FEAEC710AD00DE00F
:104F200029E02AE009F1070121F00702F2E802C1B5
:104F3000914609E00FFA8CFC4FEAEC71042A03D188
:104F40004FFA8CFC4FEAEC71002907DA0A4600217F
:104F5000DCF1000C61EB02012D2202E0220504D5F8
:104F60002B228DF80420012203E0E20701D0202249
:104F7000F7E7904659E00A2102E010220DE01021E7
:104F80004FF0000A00910BE010224FF0000A44F0AD
:104F900004040827009203E008224FF0000A009260
:104FA000C4F30252022A05D059F804CB0021032A87
:104FB00008D009E009F1070121F00702F2E802C177
:104FC000914605E01FFA8CFC042A01D10CF0FF0C7D
:104FD0004FF00008220728D5702806D0009B83F0E8
:104FE000100353EA0A0305D00EE040228DF8042096
:104FF000012208E05CEA010206D030228DF804208C
:105000008DF8050002229046009B83F0080353EAC6
:105010000A030AD15CEA010201D1620705D53022F8
:105020008DF804204FF001087F1E582804D034A0CA
:1050300003900EA802900DE036A0F9E753466046B3
:10504000009AFBF7ABF884460398825C0298401EF6
:10505000029002705CEA0100F0D1029806A9081AD9
:1050600000F1200A600702D524F4803400E0012713
:10507000574502DDA7EB0A0000E0002000EB0A0123
:10508000009005984144401A0590E00306D45B4621
:105090002146179A059800F0B3F90544002706E069
:1050A00001A85A46C05D179990476D1C7F1C474563
:1050B000F6DBE0030CD55B462146179A059800F015
:1050C0009FF9054404E030205A46179990476D1C1B
:1050D0000099481E00900029F5DC08E0029802992A
:1050E0005A460078491C0291179990476D1CBAF1F5
:1050F0000001AAF1010AF1DC65E1000009280100C4
:10510000303132333435363738396162636465663D
:1051100000000000303132333435363738394142FF
:10512000434445460000000000F058F90544761C51
:10513000307800287FF4ECAD19B02846BDE8F08F38
:10514000620700D4062709F1070222F0070CFCE8E9
:105150000223E14603F000485FEA080C02D00FF298
:10516000702C0DE05FEA045C02D50FF2682C07E0BA
:105170005FEAC47C02D00FF2602C01E0AFF2700C49
:105180004FF0FF3823F00043CDF850C065280CD015
:1051900006DC452809D046281DD047283DD13DE0F2
:1051A000662818D067287ED138E00021112F01DB56
:1051B000112000E0781CCDE9000106A90EA8FFF738
:1051C00071FCDDE90F010E9A03910021009207F1B5
:1051D000010A04914DE04FF000400097CDE9011025
:1051E00006A90EA8FFF75EFCDDE90F0203920E9BF5
:1051F00011990022DDF80CA00093049211B9791CDA
:1052000000EB010AB7EB0A0004D4C0F1FF3007F14C
:10521000010A0490AAEB0700019044E0012F00DA94
:1052200001270021112F01DD112000E03846CDE9D2
:10523000000106A90EA8FFF735FCDDE90F010E9A63
:105240000391002104910092BA4621070CD40399DE
:10525000514500DA8A46BAF1010F05DD009AAAF13C
:105260000101515C302908D0B84202DA10F1040F74
:1052700006DA0121CDE9011015E0AAF10101E9E703
:10528000002805DC049901440491AAEB000102E026
:10529000411C514500DD8A460499401A401C01908A
:1052A0004FF000400290200704D40198504501DBE4
:1052B000CDF8048000208DF84F0002980DF14F07C3
:1052C000B0F1004F25D02B200E9002984FF002082D
:1052D00000280CDA404202902D200E9007E00A21AF
:1052E0000298FBF714F93031029007F8011DB8F16C
:1052F0000001A8F10108F2DC02980028EFD1791E24
:105300000E980870307800F0200040F0450007F853
:10531000020D12A8C01B00F107081498007800B114
:10532000012000EB0A01019801EBE071059841446E
:10533000401A401E0590E00306D45B462146179AAA
:10534000059800F05DF805441498007818B15A46A5
:10535000179990476D1CE00324D55B462146179AA8
:10536000059800F04DF805441CE00498002807DB80
:10537000DDE90301884203DD0098405C179901E0F4
:10538000179930205A469047049805F10105401CB2
:1053900004900198401E019004D12E205A4617997E
:1053A00090476D1CBAF10001AAF1010ADDDC05E0AD
:1053B00017F8010B5A46179990476D1CB8F1000178
:1053C000A8F10108F4DC5B462146179A0598ABE684
:1053D0002D0000002B000000200000002DE9F0410E
:1053E000044600251E461746880404D405E03946C5
:1053F0002020B0476D1C641EF9D52846BDE8F08119
:105400002DE9F041044600251E469046C80301D50B
:10541000302700E02027880404D505E041463846BF
:10542000B0476D1C641EF9D52846BDE8F0814A6876
:10543000002A06D00A68531C0B6010704868401E92
:105440004860704770B50546304800EB0514206889
:10545000804700283ED02079052802DA05202071F7
:1054600052E020790A2803DA2079401C20714BE0B1
:10547000A07A38B90120A07205EB4501491CC8B2D9
:1054800000F0A8F9208900283EDDE08821898842C3
:105490000DDAE088401C80B2E0802189884233D157
:1054A00005EB4501C91CC8B200F094F92CE0E07A84
:1054B000002829DD207B401CC0B22073E17A88429D
:1054C00022DB0020207305EB4501491CC8B200F027
:1054D00081F919E02079052802DD0520207110E00E
:1054E000207918B12079401E20710AE0A07A0128A5
:1054F00007D10020A07205EB4501891CC8B200F05D
:1055000069F90020E080207370BD000024140020A1
:1055100010B54FF44070FBF7CBFD00F001F900F03F
:10552000C5F800F001F810BD10B500F055F800F016
:1055300001F810BD08B501214FF49A70FEF7AEFFD7
:1055400003208DF8020004208DF80300C002ADF89E
:10555000000069461C48FBF77EFB0120ADF8000007
:1055600069461A48FBF777FB4FF48070ADF80000EE
:1055700069461748FBF76FFB4FF40040ADF8000099
:1055800069461348FBF767FB0820ADF80000694641
:105590001048FBF760FB4FF48040ADF8000069460F
:1055A0000B48FBF758FB4FF40050ADF8000069467C
:1055B0000748FBF750FB8020ADF80000694604481F
:1055C000FBF749FB08BD0000001001400008014046
:1055D00000200140001401400021284A9172D1723C
:1055E0001173002018E06421254A02EB001211819A
:1055F0000221234A02EB001211710021204A02EB22
:10560000001291721E4A02EB0012D1721C4A02EB88
:1056100000121173411CC8B20A28E4DB6422184945
:105620000A87052281F83B206422A1F84820052240
:1056300081F84B206422A1F85820052281F85B20D4
:105640006422A1F86820052281F86B200D490C4ADC
:1056500011600D4911610D4911620D4911630D4928
:1056600011640D4911650D4911660D4911670D4908
:10567000C2F880100C49C2F890107047C414002082
:1056800024140020590E0008C10E0008F50E000871
:10569000290F0008410F0008590F0008710F00087A
:1056A000890F0008A10F00088D0E000808B5012120
:1056B0001020FEF7F3FE012000F048F8022000F071
:1056C00045F8032000F042F8042000F03FF80320E2
:1056D0008DF8020010208DF803004002ADF80000A4
:1056E00069460E48FBF7B7FA4FF40050ADF80000DA
:1056F00069460A48FBF7AFFA4FF40050ADF80000D6
:1057000069460648FBF7A7FA4FF40050ADF80000D1
:1057100069460248FBF79FFA08BD000000100140EF
:1057200010B5FFF769F9FBF74DFBFEF731FFFBF70B
:1057300083FA10BD10B5002404E02046FFF782FE76
:10574000601CC4B20A2CF8DB10BD0000411EC8B2B8
:1057500020B94FF400510B4A116111E0012803D127
:105760004103084A11610BE0022803D10103054AF5
:10577000116105E0032803D14FF40051014A116182
:105780007047000000100140012806D11049C96887
:1057900081F400510E4AD16019E0022806D10C496B
:1057A000C96881F400510A4AD16010E0032806D18B
:1057B0000749C96881F40051054AD16007E004280F
:1057C00005D10349C96881F40051014AD16070478D
:1057D000001001400649C97A054A50541146C97A59
:1057E000491CC9B2D1720A2901DB0021D17270476C
:1057F000C414002070B504460D46E1B20548FFF719
:1058000084F800BF40210348FEF7B1FF0028F9D01B
:10581000204670BD0038014000B58BB00AA8FBF7E8
:105820005DFC0AA8032100220592CDE9062108901B
:1058300010464FF480711922094BCDE90132CDE9B0
:10584000031002200023074A07A100900A48FCF732
:105850007DFB0AA8FCF7FEF900200BB000BD00009C
:10586000BC0100201D090008417070205461736B59
:105870002053746172740000FC0000200C1D002095
:105880000C0000008000000000020000000000008A
:105890000000000000000000000000000000000008
:1058A00000000000000000000C1F0020800000002D
:1058B0000002000020000000000200000C21002077
:1058C0001E0000000A0000000C2300200A00000057
:1058D000640000009001000040000000E8030000A8
:1058E000010000009C2400200C000000800000004B
:1058F000000200001D0000000A0000009C2600209D
:105900000C0000008000000000020000900B00006E
:10591000010101007856341201010000000000006E
:105920000000000000000000000000000000000077
:105930000000000000000000000000000000000067
:10594000000000000000000028000400000000002B
:105950000000000000000000000000000000000047
:105960000000000000000000000000000000000037
:1059700001002000010010000C00100000000000D9
:105980000000000000000000000000000000000017
:105990000000000000000000000000000000000007
:1059A00000000000000000000000000001000000F6
:1059B0003000010020000C00200020000400040042
:1059C00000000000000000000000000000000000D7
:1059D00000000000000000000000000000000000C7
:1059E00000000000000000000000000000000000B7
:1059F0000100000130000000000000000000000075
:105A00000000000000000000000000000000000096
:105A10000000000000000000000000000000000086
:105A20000101010128000C008001000004010101B6
:105A30000001000101000101C00008000100000098
:105A40000000000000000000000000000000000056
:105A50000000000000000000000000000000000046
:105A60000000000000000000000000000000000036
:105A700001003000247700006B0500009C5A0008EC
:105A800000000020FC000000844A0008985B000829
:105A9000FC0000205C300000944A00080000000078
:105AA00001020304010203040607080902040608B0
:105AB00000000000000000000000000000000000E6
:105AC00000000000000000000000000000000000D6
:105AD00000000000000000000000000000000000C6
