:020000040800F2
:1000000018360020FD690008A1660008A3660008F4
:10001000D1660008D3660008D5660008000000001D
:10002000000000000000000000000000D76600088B
:10003000D966000800000000E9360008A110000899
:10004000E56A0008E96A0008ED6A0008F16A00083C
:10005000F56A0008F96A0008FD6A0008016B0008EB
:10006000056B0008096B00080D6B0008116B000898
:10007000156B0008196B00081D6B0008216B000848
:10008000256B0008296B00082D6B0008316B0008F8
:10009000356B0008396B00083D6B0008416B0008A8
:1000A000456B0008496B00084D6B0008516B000858
:1000B000556B0008596B00085D6B0008616B000808
:1000C000656B0008696B00086D6B0008716B0008B8
:1000D000756B00085F3A00087D6B0008816B0008B3
:1000E000856B0008896B00088D6B0008916B000818
:1000F000956B0008996B00089D6B0008A16B0008C8
:10010000A56B0008A96B0008AD6B0008B16B000877
:10011000B56B0008B96B0008BD6B0008C16B000827
:10012000C56B0008C96B0008CD6B0008D16B0008D7
:100130002DE9FE4F84B00400119D139E189F5FF0BF
:10014000000BDFF8D4080078002803D047F24A10EB
:100150003880C4E0002C03D147F2AD103880BEE0F7
:100160000598002803D147F24F103880B7E0002DE2
:1001700003D146F62F603880B1E0DFF890090068BF
:10018000864203D246F630603880A8E01298B0422A
:1001900003D346F631603880A1E09DF84000202866
:1001A00003D346F27320388099E09DF840001F2861
:1001B00007D1DFF85C0A844203D046F2732038800E
:1001C0008DE0200000F09DFB00203880BDF85C0031
:1001D0000321084213D0BDF85C0010F00200C0B249
:1001E00000280CD0AA4600208046B04507D2002047
:1001F000CAF800001AF1040A18F10108F5E712988C
:1002000015EB80000290BDF85C0001900096029B07
:100210002A000699059800F0BDFE8246AA4503D241
:1002200046F62C6038805AE00598A0620698E06295
:100230000498A0609DF8400084F837009DF84000C5
:1002400084F83800C4F800A00298E06015A8169859
:10025000606065622664BDF85C00A4F8440000207C
:1002600081465FFA89F9B9F1000F08D15FFA89F97F
:1002700014EB89000021816719F10109F1E7BDF84C
:10028000501014F1600000F0A0FF200000F06CFEA0
:10029000EFF31080834672B601F0BAF894F8370095
:1002A00001F06AF9200001F0CAFD200000F001FB16
:1002B000DFF860090088401CDFF858190880DFF873
:1002C00044080078012804D001F0B6F88BF31088B8
:1002D00005E001F0B1F88BF3108801F093FA07B054
:1002E000BDE8F08F2DE9F84F04000D0016001F0047
:1002F000DDF828805FF0000ADFF81C07007800288E
:1003000005D046F2AE10A8F800000020E1E0002E73
:1003100005D146F2D520A8F800000020D9E0ADB202
:100320002800002802D0B0F5004F02D1002F08D0DD
:1003300005E045F62560A8F800000020C9E000208F
:100340003860EFF31080824672B601F061F8DFF892
:10035000B807006800F26000814643463A00310069
:10036000484600F03CFF8346B8F80000002821D141
:10037000002F19D001F033FE3968401ADFF88817D2
:1003800009680867DFF880070068406FDFF87817B2
:100390000968096F884207D2DFF86C070068DFF848
:1003A00068170968096F416701F046F88AF31088F9
:1003B00058468EE0ADB215F4004080B2002809D056
:1003C00046F2B010A8F8000001F036F88AF3108861
:1003D00000207EE0DFF8580A0078002809D001F0FC
:1003E0002BF88AF3108846F66350A8F80000002026
:1003F0006FE0230002220021002001F050FB01F0F9
:100400001BF88AF3108801F0FDF9EFF310808246A3
:1004100072B600F0FDFFDFF8F006006890F83500D6
:10042000002802D0012833D03FE0DFF8DC06006866
:10043000806D8346DFF8D0060068B0F85C0030803D
:10044000002F21D0DFF8C0060068806C386001F012
:10045000C6FDDFF8B4160968896C401ADFF8A816E3
:1004600009680867DFF8A0060068406FDFF8981693
:100470000968096F884207D2DFF88C060068DFF848
:1004800088160968096F41670020A8F800001BE082
:100490000020834600203080002F01D000203860EB
:1004A00046F2A910A8F800000EE0002083460020C4
:1004B0003080002F04D0DFF850060068806C386070
:1004C00047F2D920A8F8000000F0B6FF8AF31088A0
:1004D0005846BDE8F28F2DE9F04383B004000D00CB
:1004E00016001F00DDF82880BFB23800002808D0B1
:1004F000102806D0B0F5004F03D048F21001884212
:100500000FD101F06CFD8146CDF80480CDF800904C
:100510003B009BB2320092B22900200000F07EFA2C
:1005200003E045F62560A8F80000BDE8F78370B544
:1005300004000D000026DFF8E0040078002803D056
:1005400047F2551028801CE0EFF31080060072B6C9
:1005500000F05EFF002C04D0DFF8BC090068844284
:1005600007D100F069FF86F3108847F25710288002
:1005700007E000F061FF86F310882900200000F0FA
:10058000C7FA70BD2DE9F84304000D0016001F00E6
:100590005FF00009DFF880040078002804D046F2FC
:1005A000AE1038800020E6E0ADB22800002802D06E
:1005B000B0F5004F0CD1EFF31080814672B600F019
:1005C00027FFDFF854090068C06C002805D143E01C
:1005D00045F6256038800020CDE0DFF83C09006852
:1005E000C06C401EDFF830190968C864DFF82809BC
:1005F0000068C06C8046002E04D0DFF81C0900683B
:10060000806C306001F0EBFCDFF80C190968896C34
:10061000401ADFF804190968C1F8A000DFF8F808EB
:100620000068D0F8A400DFF8F0180968D1F8A0102D
:10063000884209D2DFF8E0080068DFF8DC180968B2
:10064000D1F8A010C0F8A41000F0F6FE89F31088CD
:100650000020388040468EE0ADB215F4004080B2F4
:1006600000280CD000F0E8FE89F31088002E01D09D
:100670000020306046F2B010388000207BE0DFF8C8
:10068000B007007800280CD0002E01D00020306088
:1006900000F0D2FE89F3108846F6635038800020BF
:1006A00069E0230007220021002001F0F8F900F0A2
:1006B000C3FE89F3108801F0A5F8EFF3108081469E
:1006C00072B600F0A5FEDFF85008006890F835001B
:1006D000002804D001282ED0032837D03EE0002E79
:1006E00026D0DFF834080068806C306001F077FCB9
:1006F000DFF824180968896C401ADFF81C180968AB
:10070000C1F8A000DFF810080068D0F8A400DFF8F6
:1007100008180968D1F8A010884209D2DFF8F80754
:100720000068DFF8F4170968D1F8A010C0F8A41029
:100730000020388015E0002E04D0DFF8DC070068C8
:10074000806C306046F2A91038800AE0002E01D09B
:100750000020306047F2D920388002E046F62E6053
:100760003880DFF8B4070068C06C804600F064FE93
:1007700089F310884046BDE8F2832DE9F04104007A
:100780000D001600ADB22800002802D0B0F5004FD1
:100790000CD101F024FC804633004246290089B286
:1007A000200000F039FA0700380003E045F6256024
:1007B00030800020BDE8F0812DE9F04704000D00F5
:1007C00016001F005FF0000A93480078002803D04D
:1007D00047F25910388052E0002D03D146F2D5205F
:1007E00038804CE0002E03D146F2D520388046E018
:1007F000EFF31080824672B600F00AFE002C03D19F
:10080000DFF8140700680400206800280BD100F00E
:1008100013FE8AF31088002028600020306047F221
:10082000521038802BE094F8440010F00100C0B260
:1008300000280BD100F000FE8AF310880020286009
:100840000020306047F25410388018E000F0F4FDCA
:100850008AF3108800208046606A8146D9F800003B
:10086000002804D119F1040918F10108F6E7C5F8C8
:100870000080206CB0EB0800306000203880BDE8BC
:10088000F08738B504000D0063480078002803D0D5
:1008900047F25D1028800BE0DFF87403844203D137
:1008A00047F25B10288003E02900200000F030FAB6
:1008B00031BD0021C0F8B410DFF8601609680029C6
:1008C00003D10021C0F8B81009E0DFF8501609681C
:1008D000C0F8B810DFF844160968C1F8B400DFF8B2
:1008E0003C1608607047DFF8341600220A60C949D8
:1008F00000220A80DFF8281600220A600021018009
:10090000704738B50400002020600020E06000201F
:10091000606000202061002060610020A061002054
:10092000E06100202062DFF8FC05A060002060622A
:100930000020A0620020E0620020A0640020A065EA
:100940000020A4F85C00002114F1600000F03DFCE0
:1009500000202067002060670020E0670020A4F8E6
:1009600084000020C4F8800000200500EDB2002DB6
:1009700006D1EDB214EB8500002181676D1CF5E70F
:100980000020E0640020C4F8A0000020C4F8A40007
:1009900000202064002084F886000020C4F8AC0009
:1009A0000020C4F8A8000020A4F84400002020651E
:1009B000002060650020A4F888000020A4F88A00C8
:1009C0000020C4F88C000020C4F8900001F007FB60
:1009D000C4F894000020C4F898000020C4F8B000C7
:1009E000002084F83400002084F83500002084F8CA
:1009F0003600202084F83700202084F838000020BA
:100A0000E0630020C4F8B4000020C4F8B800BFA020
:100A1000C4F8BC0031BD00000E2E00202DE9FC47BB
:100A200004000D0016001F00DDF82880DDF82C9072
:100A30005FF0000A0020A9F80000EFF31080824662
:100A400072B600F0E5FC002C03D1DFF8CC0400689E
:100A5000040094F8360000280BD002281BD008D3DD
:100A6000042806D017D3062815D002D3072812D0A1
:100A70003DE0CDF80490CDF800803B009BB2320001
:100A800092B2290014F1600000F0E4FB00F0D4FC05
:100A90008AF3108833E094F83400022815D1CDF899
:100AA000008033009BB22A002100002001F022F9CF
:100AB00000F0C2FC8AF31088BFB217F4004080B285
:100AC000002813D100F09EFE10E0CDF80490CDF880
:100AD00000803B009BB2320092B2290014F160000A
:100AE00000F0B8FB00F0A8FC8AF3108807E000F0E3
:100AF000A3FC8AF3108846F62D60A9F80000BDE833
:100B0000F38700000F2E0020F02D0020846A0008DB
:100B100070B504000D000026EFF31080060072B6D9
:100B200000F076FC0020288094F836000028032886
:100B300008D9001F0ED0401E20D0401E2FD0401ECE
:100B40003ED04EE000F078FC86F3108847F2531058
:100B500028804EE094F88600401E84F8860094F8C1
:100B60008600002805D1002084F83600200001F01E
:100B70002FF900F061FC86F310883AE094F88600C3
:100B8000401E84F8860094F88600002802D10120D7
:100B900084F8360000F050FC86F3108829E094F8C1
:100BA0008600401E84F8860094F88600002802D152
:100BB000022084F8360000F03FFC86F3108818E02D
:100BC00094F88600401E84F8860094F88600002879
:100BD00002D1032084F8360000F02EFC86F3108842
:100BE00007E000F029FC86F3108846F62D60288087
:100BF00001E000F007FE70BD80B5C748006800F056
:100C0000BEF900AA0021C848006801F0F3F9F8E72E
:100C1000B42800200A2E00202DE9F84304000D001E
:100C200016001F005FF00009EFF31080814672B6D6
:100C300000F0EEFB002C02D1B74800680400A66467
:100C40000020388094F8360000280BD0022820D0ED
:100C500008D3042806D01CD306281AD002D30728AC
:100C600017D047E0E06C10F1010F08D100F0E4FB71
:100C700089F3108846F6C5503880002044E0E06CC7
:100C8000401CE064E06C804600F0D6FB89F31088DD
:100C900039E094F83400072815D10096002300228B
:100CA0002100002001F026F8E06C804600F0C4FB33
:100CB00089F31088ADB215F4004080B2002818D135
:100CC00000F0A0FD15E0E06C10F1010F08D100F07C
:100CD000B3FB89F3108846F6C5503880002013E036
:100CE000E06C401CE064E06C804600F0A5FB89F3FA
:100CF000108808E000F0A0FB89F3108846F62D600C
:100D00003880002080464046BDE8F2832000000085
:100D100070B504000D000026EFF31080060072B6D7
:100D200000F076FB002C0ED180480078012807D017
:100D300000F082FB86F3108845F68960288075E014
:100D40007548006804007448006884420BD1384834
:100D50000078002807D000F06FFB86F3108846F675
:100D60006350288062E00020288094F83600002834
:100D700009D0401E15D0401E1ED0401E27D0401E58
:100D800003282FD944E0042084F83600012084F899
:100D90008600200001F073F800F04EFB86F3108807
:100DA0003EE0052084F83600012084F8860000F03B
:100DB00043FB86F3108833E0062084F836000120D8
:100DC00084F8860000F038FB86F3108828E00720BE
:100DD00084F83600012084F8860000F02DFB86F3AD
:100DE00010881DE094F88600FF2807D100F024FB4E
:100DF00086F3108847F26010288017E094F8860088
:100E0000401C84F8860000F017FB86F3108807E08A
:100E100000F012FB86F3108846F62D60288005E06E
:100E200042480078012801D100F0ECFC70BD0000C0
:100E3000132E0020F8B504000D000020060094F8E1
:100E40003700070094F8360000280BD0022821D084
:100E50001DD304281BD01DD306281BD017D3072869
:100E600018D054E0200001F00AF884F8375094F8C4
:100E7000370000F081FB28480068844203D120003D
:100E800000F0BCFF02E0200000F0D9FF40E084F851
:100E900037503DE084F8375094F83400012805D0ED
:100EA000042807D0052801D006282FD1200000F003
:100EB00075FE2BE0200000F071FE206BC068406AD8
:100EC0000600EDB2FFB2BD4207D296F83700EDB290
:100ED00085421AD30020060017E096F83700FFB2CB
:100EE000B84212D1300001F038FB050096F8380006
:100EF000EDB2A84202D296F83850FFE796F83700D4
:100F0000EDB2854201D100200600FFE700E002E0DB
:100F10003400002C91D1F1BDF02D0020CC2D00200B
:100F2000C82D0020446A0008886A00080F2E00209F
:100F300080B572480068002802D070480068804779
:100F400001BD6F4800686F49096811EB8000001F00
:100F50006D490860704780B56C480068002802D071
:100F60006A480068804701BD10B504006848006801
:100F7000002803D0200066490968884710BD10B5D5
:100F8000040064480068002803D020006149096813
:100F9000884710BDF0B40500049E059C12EB86073F
:100FA0003800C008C000001F5FF080770760001F96
:100FB0000560001F584F0760001F5FF01237076081
:100FC000001F5FF003370760001F5FF00237076004
:100FD000001F0360001F0160001F5FF011370760F2
:100FE000001F5FF010370760001F5FF009370760D0
:100FF000001F5FF008370760001F5FF007370760CA
:10100000001F5FF006370760001F5FF005370760BD
:10101000001F5FF004370760F0BC704738B53F48E9
:101020000068002802D03D480068804700F0D7FFE4
:1010300004003B4800683B490968884215D038489D
:101040000068D0F89400201A35490968C1F890006A
:1010500033480068D0F8980031490968D1F89010F9
:1010600008182F490968C1F898002E480068C0F890
:10107000944000F099F9050029480068D0F8B000C4
:10108000A84203D226480068C0F8B05031BD80B5F0
:1010900025480068002802D023480068804701BD29
:1010A00010B50024EFF31080040072B600F0B0F920
:1010B0001E480078401C1D49087000F0BDF984F3FB
:1010C000108800F0E3FF00F03DFB10BD421E184BFE
:1010D0001A60184A126811000902090A154A1160BB
:1010E000154A126852F00502134B1A60124A126830
:1010F00052F00202104B1A60704700008C2D002045
:10110000606A00085C6A0008782D0020902D00209D
:10111000802D0020882D0020F90B0008942D002040
:10112000F02D0020F42D0020982D00200E2E002000
:1011300014E000E020ED00E010E000E070B4884D25
:101140002D68002D03D145F21E7505803BE0854DCD
:101150002D88002D03D145F21D75058033E0804DAB
:101160002D6829007E4D2D682A0010327D4D2D8876
:101170006D1E2C0000252B009BB2A4B2A3420AD204
:101180000A6000254D6000250D810025CD601031DD
:1011900010325B1CF0E700250D6000254D60002536
:1011A0000D810025CD60704D6D4E36682E606E4D00
:1011B0006C4E3688AE806C4D0026EE806A4D00265F
:1011C0002E810025058070BC70470181002242817C
:1011D0000022828100220260002242607047F0B447
:1011E0000400608900280AD100200880002A01D06C
:1011F0000020106046F292501880002028E06068BD
:1012000005006868060028890880002A01D0E8687F
:101210001060286860606068002804D100202060A9
:101220000020608102E06089401E60814E480068B5
:1012300028604D4805604C488088401C4A4FB88063
:101240004948C088401E484FF88000201880300070
:10125000F0BC7047F0B5059C069DB0F80AC0B0F828
:1012600008E0F44504D346F2935CA5F800C075E0AD
:10127000DFF8F4C0BCF804C0BCF1000F04D145F2A3
:101280001D7CA5F800C069E0DFF8DCC0DCF800C018
:101290006646DFF8D4C0D6F800E0CCF800E0DFF80E
:1012A000C8C0BCF804C0BCF1010CDFF8BCE0AEF86B
:1012B00004C0DFF8B4C0BCF806C01CF1010CDFF8B4
:1012C000A8E0AEF806C0DFF8A0C0BCF808C0DFF8A0
:1012D00098E0BEF806E0F44507D2DFF88CC0DFF8EE
:1012E00088E0BEF806E0ACF808E0B0F80AC0BCF14F
:1012F000000F0AD1066046605FF0010CA0F80AC03A
:101300005FF0000CC6F800C017E05FEAC36C09D4B8
:10131000D0F800C067463E6006605FF0000CC6F87B
:1013200000C004E0D0F804C0C6F800C04660B0F8C1
:101330000AC01CF1010CA0F80AC0B0F80CC0B0F84B
:101340000AE0F44503D2B0F80AC0A0F80CC07160FE
:101350003281F4605FF0000CA5F800C0F0BD000021
:101360006C6A00080E400008442D002080B500F093
:1013700088F800F08DF800F080F801BD10B5002469
:10138000EFF31080040072B600F042F81021DFF88D
:10139000940101F017F900F04FF884F3108810BDA4
:1013A000DFF884110860704738B5002500F00DF8AB
:1013B0000400EFF31080050072B6DFF87001002121
:1013C000016085F31088200032BD70B50026EFF370
:1013D0001080060072B6DFF854010068040086F33E
:1013E0001088200000F090F80500280070BD70B54E
:1013F0000026EFF31080060072B64D480068040026
:1014000086F31088200000F07FF80500280070BDEA
:1014100080B548480088401C4649088046480088F6
:10142000002803D100F0DBFD4449086042480088F1
:10143000401C4149088001BD10B53F480088401E4E
:101440003D4908803C480088002815D100F0C7FDC0
:101450003B4908603A48006838490968401A040066
:1014600032480068A04201D2304804603048006829
:10147000A04201D22E48046010BD80B5FFF77EFF68
:1014800001BD80B528480021016000F091FD01BD3B
:1014900070B50026274800210180274800210180DF
:1014A0002648002101602648002101601F480021D4
:1014B00001601F48002101602248002101600020D6
:1014C0000400EFF31080060072B600200500ADB2F4
:1014D000002D0BD1154800210160FFF799FFFFF7A0
:1014E000ABFF1248006804196D1CF0E70120B4FB43
:1014F000F0F0144908600D48002101600C480021FB
:10150000016086F3108870BD010008000D4A126862
:10151000824203D20B4A1268801A01E000221000B6
:1015200070470000342D0020602D0020702D002019
:10153000742D0020F82D0020FA2D0020642D0020AD
:10154000682D00206C2D002000210800002805D106
:101550001E49002241F82020401CF7E7704738B5AB
:101560000020050019480400206801F08EF8401999
:1015700005002800C0B232BD30B400242300C0B240
:10158000020001242100D2F11F04A140DBB20F4C64
:1015900054F823400C43DBB20C4D45F8234030BCDB
:1015A000704730B400242300C0B20200012421009F
:1015B000D2F11F04A140DBB2044C54F823408C4309
:1015C000DBB2024D45F8234030BC70477C2D002033
:1015D00070B50400FFF7B5FCDFF830090021017099
:1015E000DFF82C0900210170DFF8280900210170C3
:1015F000DFF8240900210160DFF8200900210160E3
:10160000DFF81C0900210170DFF8180900210170C2
:10161000DFF8140900680500002D0AD0DFF80C0976
:1016200000680600002E04D0761E002028602D1DC4
:10163000F8E7DFF8FC0800210160DFF8F808002176
:101640000160DFF8F40800210160DFF8F0080021F4
:101650000160DFF8EC0800210160DFF8E8080021F4
:101660000160DFF8E40800210160DFF8E0080021F4
:101670000170FFF769FF00F099FBDFF8D408002143
:101680000160DFF8D00800210180200001F008F897
:101690002088002843D12000FFF750FD2088002833
:1016A0003DD1DFF8B40800210160DFF8B008002167
:1016B0000180DFF8AC0800210160DFF8A8080021F4
:1016C0000180DFF8A40800210160DFF8A0080021F4
:1016D00001802000FFF707F9208800281FD1200093
:1016E00000F0B4F92088002819D1200001F01CF87E
:1016F0002088002813D1200001F0B2FC20880028A7
:101700000DD1200001F030FD2088002807D101F024
:1017100041FE01F055FFDFF858080121017070BD4E
:10172000DFF8EC07007801280BD1DFF8E00700783C
:10173000FA2806D2DFF8D4070078401CDFF8CC176F
:101740000870704710B50024DFF8C407007801283E
:1017500057D1EFF31080040072B6DFF8B0070078BD
:10176000002802D184F310884BE0DFF8A00700784E
:10177000401EDFF898170870DFF8900700780028FF
:1017800002D084F310883CE0DFF888070078002856
:1017900002D084F3108834E0FFF7E1FEDFF884170D
:1017A0000870DFF8800700780C21DFF8C82701FBFC
:1017B00000200068DFF864170860DFF86007006841
:1017C000DFF854170968884202D184F3108818E0C2
:1017D000DFF848070068D0F88C00401CDFF83C17A1
:1017E0000968C1F88C00DFF890070068401CDFF83A
:1017F00088170860DFF884075FF08051016084F388
:10180000108810BD10B50024DFF80007007800280C
:101810003FD1DFF80007007800283AD1EFF31080BD
:10182000040072B6FFF79BFEDFF8F8160870DFF8C9
:10183000F40600780C21DFF83C2701FB002000684B
:10184000DFF8D8160860DFF8D4060068DFF8C8169D
:101850000968884202D184F310881AE0DFF8BC06D8
:101860000068D0F88C00401CDFF8B0160968C1F899
:101870008C00DFF804070068401CDFF8FC160860E5
:10188000DFF8F8065FF08051016084F31088BFF341
:101890006F8F10BD38B504000025DFF870060078A2
:1018A000002803D046F66250208024E0DFF860066E
:1018B0000078012803D045F6896020801BE0DFF81E
:1018C00054060078FA2803D345F20920208012E05C
:1018D000EFF31080050072B6FFF79AFDDFF83406CB
:1018E0000078401CDFF82C160870FFF7A5FD85F383
:1018F00010880020208031BD38B504000025DFF8B5
:101900000C060078002803D046F66550208033E0AE
:10191000DFF8FC050078012803D045F689602080B7
:101920002AE0DFF8F0050078002803D146F664507D
:10193000208021E0EFF31080050072B6FFF768FD0C
:10194000DFF8D0050078401EDFF8C8150870DFF812
:10195000C4050078002807D0FFF76EFD85F31088D6
:1019600046F66350208007E0FFF766FD85F3108898
:10197000FFF748FF0020208031BD38B50400DFF8B4
:10198000F0050078012803D045F68B6020803EE00A
:10199000002005006D1C6D1C6D1C6D1CDFF8E00542
:1019A0000088ADB2854203D345F68C6020802EE0DE
:1019B000DFF85C050078002826D1FFF7D0FDDFF8BE
:1019C00064150870DFF85805DFF8581509780170BC
:1019D000DFF8500500780C21DFF8982501FB002086
:1019E0000068DFF838150860DFF82C05DFF82C15E3
:1019F00009680160DFF818050121017001F03CFE63
:101A000043F69920208002E045F68A60208031BDAF
:101A100038B504000025EFF31080050072B6FFF71B
:101A2000F7FCDFF860050068401CDFF85815086017
:101A3000DFF854050068401CDFF84C150860FFF71C
:101A4000FBFC85F31088FFF773FAE4E710B58AB062
:101A50000400DFF830050021016008940B20079096
:101A6000002006900020059000200490DFF81C055F
:101A700000680390DFF8180500680290DFF814058D
:101A8000006801901F2000900023DFF80C25DFF88C
:101A90000C15DFF80C05FEF74BFB0AB010BD2DE965
:101AA000F04104000D0016001F00DFF86C04006810
:101AB00080F83460DFF860040068002180F8351099
:101AC0003900DFF85404006800F00AFA002D0FD046
:101AD00015F108008046E56001222100DFF8380496
:101AE000006800F012F82100404600F07EF804E0A3
:101AF000DFF82404006800210163DFF81C0401689A
:101B0000280000F011F8BDE8F081016300234B606C
:101B100000230B6000230B6100234B6100230B8328
:101B20000023CB618860704730B400280CD0456832
:101B3000C1F8BC5010F108052A0015682B009D68FB
:101B40002C00A568C56113E091F83450022D02D035
:101B5000072D05D009E0DFF84C54C1F8BC5007E070
:101B6000DFF84454C1F8BC5002E0A3A5C1F8BC5052
:101B700030BC704730B4A0A5C1F8BC5010F10805C6
:101B80002A0015682B00002B04D09D682C00A56846
:101B9000C56101E098A5C56130BC70472DE9F041F1
:101BA0000400206B060001200500ADB2002D13D00B
:101BB000F068804618F1080007003868406800287F
:101BC00007D03100380000F06AF83100380000F02A
:101BD0000CF820366D1EE8E7BDE8F08100210160B9
:101BE00000214160002101817047F0B48F683B0003
:101BF00093F837703A000768002F08D10127078152
:101C000000274F6000270F600160416028E00789CE
:101C10007F1C078107683E00002E08D0B7683C0093
:101C200094F83770D2B2BA4201D37668F4E7002E46
:101C300007D100274F6047683D000D606960416033
:101C40000EE03768002F05D1316000270F604E602D
:101C5000016005E037683D000D604E6069603160ED
:101C6000F0BC70472DE9F0410400206B002814D02F
:101C7000206B060001200500ADB2002D0BD0F068EE
:101C8000804618F1080007003100380000F007F81E
:101C900020366D1EF0E700202063BDE8F08110B40F
:101CA00004686468002C04D10024046000244460AB
:101CB00017E00C68002C05D14C68230000241C6040
:101CC00003600EE04C68002C05D10C682200002453
:101CD0005460426005E00C6822004C6823005360A9
:101CE0001A600489641E048100244C6000240C6086
:101CF00010BC70472DE9F04104000D0016001F00D4
:101D0000DDF8188095F8360000280BD002280AD09C
:101D100008D3042806D006D3062826D002D30728E5
:101D200023D041E040E0AE65A5F85C70C5F848807E
:101D3000002C06D02800FFF795FF29002000FFF7B0
:101D400019FF95F83600032802D1280000F0EDFDB8
:101D5000280000F03DF8002085F83600002085F8C6
:101D60003500002085F834001EE0AE65A5F85C70F3
:101D7000C5F84880002C06D02800FFF773FF290023
:101D80002000FFF7F7FE95F83600072802D128005B
:101D900000F0CBFD042085F83600002085F83500E2
:101DA000002085F83400FFE7BDE8F0810022100034
:101DB00020280CD20C226F4B02FB003211000022B3
:101DC0000A8100220A6000224A60401CF0E7704746
:101DD00010B5040094F83700FFF7CEFB94F83700F5
:101DE0004F490978884203D1200000F028F802E02A
:101DF000200000F003F810BD2000000030B490F87F
:101E000037300C245B4D04FB035319000B68002B87
:101E100008D101230B810023036100234361086083
:101E200048600AE00B895B1C0B810B68036100238F
:101E300043610B681A005061086030BC704730B4D1
:101E400090F837300C244B4D04FB035319000B68FA
:101E5000002B08D101230B81002303610023436180
:101E60000860486009E00B895B1C0B81002303615B
:101E70004B681A0042611061486030BC7047F8B589
:101E8000040094F837000C213A4A01FB00200500B9
:101E90006069060020690700002E13D1002F0AD1C7
:101EA00000202881002028600020686094F8370016
:101EB000FFF777FB0FE02889401E2881002078611A
:101EC0002F6008E02889401E28813761002F01D14A
:101ED0006E6000E07E610020606100202061F1BD45
:101EE00038B504000D00002D08D02A0021002F482D
:101EF00000F07BFC032084F8360002E0022084F826
:101F000036002000FFF7BBFF31BD00000E2E002081
:101F10000F2E0020132E0020F02D0020F42D002085
:101F2000112E0020122E00205C6A0008606A000852
:101F3000802D0020842D0020882D00208C2D002055
:101F4000902D0020942D0020982D0020162E00208A
:101F5000A42D0020FC2D0020AC2D0020002E002000
:101F6000B02D0020022E0020B42D0020042E0020D1
:101F7000102E002034240020C82D002004ED00E0A5
:101F80000A2E00209C2D0020B82D0020546A000845
:101F9000506A00084C6A0008111A0008806900089D
:101FA000B42800203C6A0008246A0008582D00204C
:101FB00010B501F0D9FB04000B48006850F08070A8
:101FC000094908600948002101600948006850F08B
:101FD0000100074908602000FFF7E2F910BD03493E
:101FE0000968080070470000FCED00E0041000E004
:101FF000001000E0F8B504000D001600002733487B
:102000000078002803D047F2752030803DE030484A
:102010000078002803D046F66350308035E0ADB23A
:102020002800002805D0022803D0042808D008285A
:1020300007D1002C03D147F27E20308025E004E058
:1020400003E045F6256030801FE0EFF310800700C5
:1020500072B6FFF7DDF933002A0092B221001D4865
:10206000006800F00AFC3088002804D0FFF7E4F98B
:1020700087F3108809E017480068FFF700FFFFF7B3
:10208000DBF987F31088FFF7BDFBF1BD80B512487F
:102090000078012818D1FEF7FAFF00AA00210F48A6
:1020A000FEF76BFB0E490968491E0D4A11600C4989
:1020B0000968002908D10A480A490968016000AA8C
:1020C00000210948FEF759FB01BD00000E2E00203B
:1020D000132E0020F02D00200F2E0020342A002087
:1020E000EC2D0020E82D0020F42A0020F8B5040093
:1020F0000D0016000027DFF824040078002803D024
:1021000042F6E16030802CE0002C03D145F6C3504C
:10211000308026E0EFF31080070072B6FFF778F901
:10212000DFF8FC0320606560002020620020606210
:10213000002084F828000020E06214F10800FFF776
:102140004DFD200000F0D4F9DFF8D8030088401CD2
:10215000DFF8D0130880FFF76FF987F310880020AD
:102160003080F1BD2DE9F04788B004000D00160065
:102170001F00DDF840805FF0000ADFF8A003007860
:10218000002804D046F2AE10A8F80000E9E0002CC8
:1021900004D145F6C350A8F80000E2E0B6B2300022
:1021A000002802D0B0F5004F05D12068DFF8701389
:1021B000884205D109E045F62560A8F80000D0E086
:1021C00045F6C450A8F80000CBE0EFF3108082463B
:1021D00072B6FFF71DF994F82800002818D1DFF82F
:1021E000480300686062012084F82800002F01D0B5
:1021F000E06A38602100DFF83003006800F09CF9E5
:10220000FFF71AF98AF310880020A8F80000A8E068
:10221000DFF814030068616A88421ED194F8280030
:10222000FF2808D1FFF708F98AF3108845F2847077
:10223000A8F8000095E094F82800401C84F82800D5
:10224000002F01D0E06A3860FFF7F6F88AF31088B3
:1022500045F28270A8F8000083E0B6B216F40040A0
:1022600080B200280CD0FFF7E7F88AF31088002F1F
:1022700001D00020386046F2B010A8F8000070E0ED
:10228000AA48007800280CD0FFF7D6F88AF3108807
:10229000002F01D00020386046F66350A8F80000F7
:1022A0005FE0606A8146A048006890F8370099F8BE
:1022B0003710884206D29C48006890F8371048468C
:1022C000FEF7B8FD2B000422210000A8FFF7E7FB72
:1022D000FFF7B2F88AF31088FFF794FAEFF3108053
:1022E000824672B6FFF794F88F48006890F8350080
:1022F000002805D0022821D00CD3032815D028E0CF
:10230000002F03D088480068806C38600020A8F84F
:10231000000022E0002F03D083480068806C386002
:1023200046F2A910A8F8000017E0002F01D0002005
:10233000386047F2D920A8F800000EE0002F03D043
:1023400079480068806C386045F6C250A8F80000F3
:1023500003E046F62E60A8F80000FFF76DF88AF358
:10236000108808B0BDE8F0872DE9F84F04000D0093
:1023700016005FF0000B69480078002803D046F291
:102380000E203080B2E0002C03D145F6C3503080DF
:10239000ACE0ADB22800002802D0B0F5004F04D167
:1023A00020685F49884204D107E045F62560308007
:1023B0009CE045F6C450308098E0EFF310808346EF
:1023C00072B6FFF725F858480068616A884207D05E
:1023D000FFF732F88BF3108845F28170308085E08A
:1023E000FFF7FDFD8146C4F82C9094F82800401EAC
:1023F00084F8280094F82800002807D0FFF71CF87C
:102400008BF3108845F2837030806FE021004648DE
:10241000006800F095F814F10800070038680028FB
:102420000BD100206062002084F82800FFF704F838
:102430008BF310880020308058E03B48006890F80B
:1024400037003949096891F8381088422CD036484D
:10245000006800F082F882463348006890F838003F
:102460005FFA8AFA504504D22F48006890F838A0E5
:10247000FFE72D48006890F837005FFA8AFA504568
:1024800012D229480068FFF7FAFC2748006880F854
:1024900037A05046C0B2FFF76FF823480068FFF737
:1024A000CEFC234880F800A0386880688046C4F8D5
:1024B0002480012084F828002100404600F03CF8E8
:1024C000CDF800900023002241462000FFF712FCC7
:1024D000FEF7B2FF8BF31088ADB215F4004080B266
:1024E000002801D1FFF78EF900203080BDE8F18F80
:1024F00009A1C161002141610E490968002902D189
:102500000021816105E00B49096881610949096879
:102510004861084908607047200000000E2E002026
:102520004D555458002E0020F02D0020132E002071
:10253000112E0020AC2D0020C26B0A62C1637047CF
:1025400000F23C031A0013688B4202D0126820325A
:10255000F9E713681B6A1360704730B401001F2548
:10256000280001F23C052A001568002D10D01568DE
:10257000AD682C00002C08D0A56895F837502B00CA
:10258000DBB2C0B2834200D2180012682032EBE7FF
:10259000C0B230BC704710B450F8041B81B102685F
:1025A0001218001D50F8043BDC0744BFA9F10104D8
:1025B000E31852F8044B43F8044B091FF9D1EBE739
:1025C00010BC704738B504000D002A00002120001F
:1025D00000F001F831BD2DE9F0415FF0000E7446C6
:1025E0005FF0000EF446BCF1040F05D22402C9B21C
:1025F0000C431CF1010CF6E713005FF0040EB0FB76
:10260000FEF808FB1E085FFA88F847460600002F10
:102610000BD0BC46002B08D0BCF1040F05D23170A2
:10262000761C5B1E1CF1010CF4E73500042B03D370
:102630002C602D1D1B1FF9E72E00002B03D03170DD
:10264000761C5B1EF9E7BDE8F08150F8041B61B110
:1026500050F8042BD30744BFA9F101039A180023B3
:1026600042F8043B091FFAD1EFE7704772B6704792
:1026700062B67047EFF3108072B6704780F310882F
:10268000704730BF704720BF7047B0FA80F0704786
:1026900090FAA0F0B0FA80F0704790FAA0F070477E
:1026A000054900220A60034900220A8000210180B6
:1026B00070470000FE2D0020A82D00202DE9F141DB
:1026C00081B05FF0000801A800AB002200210020CB
:1026D000FDF758FFBDF800100029F5D1EFF3108089
:1026E000804672B6FEF794FE01200700DFF88004F2
:1026F0000068401CDFF878140860380000F04FF9DB
:102700000500380000F09EF9060070190400DFF89B
:1027100064040068A04202D2DFF858040460FEF7A7
:102720008BFE88F31088CFE710B58AB00400DFF87D
:10273000400400210160DFF8400400210160DFF85F
:102740003C0400210160DFF8300400218180DFF8C3
:1027500028040021C180DFF8240400218180DFF8F3
:102760001C040021C180DFF818040068002803D190
:1027700047F21220208036E0DFF808040068DFF816
:1027800008140968884203D247F2132020802AE007
:10279000DFF8F80300781F2803D347F211202080C8
:1027A00021E008940B20079000200690002005905F
:1027B00000200490DFF8CC0300680390DFF8D0031A
:1027C00000680290DFF8B80300680190DFF8BC03EE
:1027D000007800900023DFF8BC23DFF8BC13DFF89B
:1027E000BC03FDF7A5FC0AB010BD70B40668002E4E
:1027F00009D10A6500268E610026CE61086201605B
:102800000126868037E0066833000668340015002C
:10281000002C27D0266DAE421FD3E669002E0DD1C5
:102820000D650026CE618C610862266D761B2665DB
:10283000E16101608688761C86800DE0E6693300E0
:102840000D65CB618C610862266D761B2665E161A2
:1028500099618688761C86800DE0266DAD1B23006D
:10286000A469D5E70D65CB6100268E610862996188
:102870008688761C868070BC70472DE9F84304007A
:102880000D0016001F00BA4800688146B6B2042E3B
:102890000ED1B5EB09008046C148804502D2B8F19F
:1028A000000F32D10020206547F27E2038803AE0C8
:1028B000B6B2082E28D1606DB9EB0000854204D273
:1028C000A84615EB090060651FE0B5EB0900616DD6
:1028D00008188046B248804502D2B8F1000F0FD1E7
:1028E000606D616DB9EB0101B1FBF5F101FB0551C3
:1028F000081860650020206547F27E20388012E0CD
:10290000606D2818606500E0A8460020388001202E
:1029100084F8360019EB080095490968421A21002D
:102920009548FFF762FFBDE8F18330B4046A2100E7
:10293000C469220084692300002A1BD1002B08D11E
:1029400000240C6000248C800024046500240462B0
:1029500023E00024DC611C6D056D2C191C650B60E7
:102960008C88641E8C80002484610024046500240B
:10297000046212E09361002B04D0DA611C6D056DD6
:102980002C191C650024C4618C88641E8C80002472
:102990008461002404650024046230BC70472DE982
:1029A000F8430400FFF71BFB070000208146724834
:1029B000060030680500002D3BD0286D844204D30A
:1029C000286D241A0020286502E0286D001B286568
:1029D000286D00282DD119F1010995F8360001283C
:1029E00006D1002085F836002800FFF7F1F906E04F
:1029F00095F83600052802D1042085F83600A8692C
:102A0000306030680500002D02D10020B08010E059
:102A1000B088401EB0800020E861286D844204D355
:102A2000286D241A00202865D2E7286D001B286530
:102A3000CEE7A6F80690FFF7D2FAC01B80464046C4
:102A4000BDE8F2832DE9F84F0400FFF7C8FA07004C
:102A5000002081464948060030680500002D7DD0E1
:102A6000286D844204D3286D241A0020286502E0D2
:102A7000286D001B2865286D00286FD119F1010908
:102A80000020824695F83400042803D1286BC068E2
:102A9000406A82460020A8650020A5F85C00FFF788
:102AA0009EFAA8642800FFF7DDF895F836000328A1
:102AB00006D12800FFF78CF9002085F8360006E0E3
:102AC00095F83600072802D1042085F83600032047
:102AD00085F83500002085F83400BAF1000F23D0C6
:102AE0009AF837009AF8381088421DD09AF83700C3
:102AF00095F83710884217D15046FFF72EFD8346D0
:102B00009AF838005FFA8BFB584502D29AF838B031
:102B1000FFE79AF837005FFA8BFB834504D05946EC
:102B2000C9B25046FEF786F9A869306030680500E2
:102B3000002D02D10020B08010E0B088401EB0808F
:102B40000020E861286D844204D3286D241A0020F7
:102B5000286590E7286D001B28658CE7A6F806908D
:102B6000FFF73DFAC01B80464046BDE8F28F0000EB
:102B7000D02D0020D42D0020502D0020582D0020D5
:102B80008C6A0008946A0008846A0008D96B0008FF
:102B9000906A0008BD260008A8690008342A0020B1
:102BA0000100FFFF2DE9F04104005FF00008EFF3A2
:102BB0001080804672B6FEF72BFCDFF83805002146
:102BC0000180DFF8340500210160DFF830050021C5
:102BD0000160DFF82C0500210160DFF828050021E5
:102BE0000160DFF8240500210181FEF725FC88F350
:102BF0001088EFF31080804672B6FEF709FCDFF80C
:102C00000C0500680500FEF717FC88F31088002DFE
:102C10002CD0EFF31080804672B6FEF7F9FB00204F
:102C2000C5F8B000002068670020C5F8A4000020A7
:102C3000C5F88C000020A5F888000020A5F88A00BF
:102C40000020C5F898000020C5F89C00FFF7C7F9E0
:102C5000C5F8940005F2600006000020B081D5F8A8
:102C6000B850FEF7E9FB88F31088D0E7EFF3108047
:102C7000804672B6FEF7CCFBDFF8940400680700CC
:102C8000FEF7DAFB88F31088002F10D0EFF31080E6
:102C9000804672B6FEF7BCFB17F12000060000204C
:102CA000B081BF69FEF7C8FB88F31088ECE700200D
:102CB0002080BDE8F08170B582B00400002600A934
:102CC000DFF85004FDF7DDFDBDF80000002803D05B
:102CD000BDF80000208062E000AA00210220FFF77A
:102CE00089F9BDF80000002803D0BDF8000020805D
:102CF00055E0EFF31080060072B6FEF789FBDFF8AF
:102D0000180400210160FEF797FB86F3108800206D
:102D10000500DFF808040068DFF804140968884239
:102D200008D2DFF8FC030068DFF8F0130968B0FB95
:102D3000F1F00500002D06D1DFF8E40300680A2158
:102D4000B0FBF1F0050000AA00212800FFF752F9BE
:102D500000A9DFF8C003FDF7EAFBBDF8000000287A
:102D600003D0BDF80000208019E0EFF310800600CA
:102D700072B6FEF74DFBDFF8800300210160DFF83B
:102D8000A403DFF8941309680160DFF89C030121B4
:102D90000170FEF751FB86F310880020208073BD80
:102DA0002DE9F14F86B05FF0000BDFF87C0300786F
:102DB000012808D001AA0021DFF860030068400064
:102DC000FFF718F9F1E701A8FFF7ECFE00200090EB
:102DD000DFF848030068DFF848130968884207D223
:102DE000DFF83C030068CD490968B0FBF1F00090C2
:102DF0000098002805D1CA4800680A21B0FBF1F00C
:102E00000090FFF7ECF80490FEF7F1FABD49086076
:102E1000EFF31080834672B6FEF7FAFAC348BE4954
:102E200009680160BC4800210160FEF705FB8BF3D7
:102E30001088BE480068BB49096888424BD2B9482F
:102E40000068BB49884205D242F2107081460120D9
:102E5000824624E0B3480068B649884205D24FF460
:102E60007A7081460A20824619E0AE480068B2496D
:102E7000884204D264208146642082460FE0A9483B
:102E80000068AE49884205D20A2081464FF47A7024
:102E9000824604E00120814642F210708246A14839
:102EA0000068B0FBFAF0059042F210709F49096883
:102EB00001FB09F1059AB1FBF2F1401AA049088023
:102EC0008C4800889E490988884207D289489C49D5
:102ED0000988018002E09A4800210180FEF73BF852
:102EE00000200500EFF31080834672B6FEF790FADB
:102EF000864800688046FEF79FFA8BF31088B8F189
:102F0000000F20D0EFF31080834672B6FEF780FAF0
:102F1000D8F89800C8F89C000020C8F89800FEF780
:102F20008BFA8BF31088D8F89C004519EFF31080CA
:102F3000834672B6FEF76CFAD8F8B880FEF77CFAD2
:102F40008BF31088DBE7002D2BD07948854205D222
:102F500042F210700700012006001EE0754885420D
:102F600005D24FF47A7007000A20060015E0724877
:102F7000854204D264200700642006000DE06F48FB
:102F8000854205D20A2007004FF47A70060004E05B
:102F90000120070042F210700600B5FBF6F0039026
:102FA00003E00020070001200390EFF31080834628
:102FB00072B6FEF72DFA554800688046FEF73CFAD7
:102FC0008BF31088B8F1000F2DD0D8F89C0000FBCF
:102FD00007F00399B0FBF1F0040042F21170A4B2C3
:102FE000844202D342F210700400A8F88840B8F876
:102FF0008A00A4B2A04201D2A8F88A4001AB18F11D
:10300000A80218F1AC014046FDF7D6FBEFF31080A3
:10301000834672B6FEF7FCF9D8F8B880FEF70CFAD2
:103020008BF31088CEE747480078012805D1454842
:103030000021017001A8FFF7B5FDFEF7D0FF04994C
:10304000401A02902C4800680299884202D22A480D
:103050000299016001AA00210098FEF7CBFFD0E69B
:1030600010B58AB004002C48002101602F480021CF
:1030700001602C48002101602B480021017031487B
:103080000021017030480068002803D146F62B600B
:1030900020802CE02D4800682D490968884203D221
:1030A00046F62C60208022E02A4800781F2803D3AF
:1030B00046F62A6020801AE008940320079000203A
:1030C000069000200590002004902048006803909E
:1030D0002148006802901C48006801901D48007853
:1030E000009000231D4A1E491E48FDF721F80AB032
:1030F00010BD0000082E0020C42D0020D42D00207B
:10310000E02D0020A02D0020442D0020CC2D0020FB
:10311000B02D0020F42A0020B82D0020706A00088D
:10312000886A0008BC2D0020152E0020C02D00202C
:10313000801A060000093D00005A62020084D71779
:10314000062E0020142E0020746A00087C6A0008F5
:10315000846A0008D86B0008786A0008A12D00086E
:10316000946900087429002010B58AB004007948D9
:10317000002101607548002101607548002101802F
:1031800075480068002808D07448006872490968CA
:10319000B0FBF1F07249086006E0704800680A214F
:1031A000B0FBF1F06E4908606E486D490968016036
:1031B0006D48002101606D480021016022006C49CA
:1031C0006C48FEF793FF2088002835D16A480068D4
:1031D000002803D147F2473020802DE0674800687F
:1031E00067490968884203D247F24830208023E0CB
:1031F000644800781F2803D347F2463020801BE044
:1032000008940B20079000200690002005900020D5
:1032100004905A48006803905B4800680290564842
:103220000068019057480078009000230FF259027F
:1032300056495748FCF77CFF0AB010BD10B4434B09
:103240001B68834208D103691900404B19600029AB
:103250000AD000234B6107E04369190003691A0093
:103260000A61002A00D05161012380F82630002332
:10327000036100234361364B1B885B1E344C238063
:1032800010BC7047000000002DE9FC47040000ABB3
:1032900001AA00210020FDF775F9824600F042F8EE
:1032A000FEF79DFE804630480068401C2E490860AD
:1032B000264800680600002E25D000A8FEF7EAFA8E
:1032C00000A830690700B069401EB061B0690028ED
:1032D00013D1B08C022802D1306AB06105E0300011
:1032E000FFF7ACFF032086F82600B0680500280031
:1032F000002802D0F1683000A8473E0000A8FEF781
:10330000FBFA00A8D7E7FEF76AFEB0EB080081469B
:1033100016480068484502D21448C0F8009000F0F2
:103320000CF8B4E7E0B501A8009002AB0022002140
:103330001048FEF717FF01A807BD80B500AA0021BD
:103340000C48FFF711F800A801BD0000DC2D00209B
:103350000C2E0020D82D00209C6A0008886A0008E6
:10336000E82D0020EC2D0020E42D0020E02D002091
:10337000EC690008A42C0020A06A0008A86A0008D4
:10338000846A0008DA6B0008A46A0008046900086F
:10339000F42A0020454B1800454B1A00454B1800F5
:1033A000454B1800454B1A00454B1800454B19007A
:1033B000454B1800454B1800454B1800454B18006D
:1033C000454B1900454B1900454B1800454B19005A
:1033D000454B1800454B1900454B1800454B19004B
:1033E000454B1900454B1900454B1900454B18003A
:1033F000454B1800454B1800454B1900454B18002C
:10340000454B1800454B1900454B1900454B190019
:10341000454B1900454B1900454B1900454B190008
:10342000454B1800454B1800454B1800454B1800FC
:10343000454B1900454B1900454B1900454B1800E9
:10344000454B1800454B1800454B1900454B1900DA
:10345000454B1900454B1A00454B1900454B1800C8
:10346000454B1800454B1800454B1800454B1800BC
:10347000454B1800454B1800454B1900454B1800AB
:10348000454B1800454B1900454B1900454B18009A
:10349000454B1800454B1900454B1800454B18008B
:1034A000454B1900454B1900704700BFDB6B000806
:1034B000BC6A0008DC6B0008DD6B0008B46A000819
:1034C000DE6B000850680008DF6B0008E06B000846
:1034D000E16B0008E26B0008625100087A510008B5
:1034E000E36B0008E4680008E46B0008B2510008D0
:1034F000E56B0008FA520008B6530008E6530008CE
:103500003C670008E66B0008E76B0008E86B000802
:1035100016540008E96B0008EA6B000832550008F1
:10352000DE580008265B0008A25B0008A65B0008C6
:103530007E5C00086C670008EB6B0008EC6B000811
:10354000ED6B0008EE6B0008B6630008EF6B000837
:1035500078680008F06B0008F16B0008F26B000857
:10356000F36B000802650008DA660008B86A000814
:10357000F46B0008F56B0008F66B0008F76B0008A9
:10358000F86B0008F96B0008FA6B0008FB6B000889
:103590003A690008FC6B0008FD6B000846690008EA
:1035A00072690008FE6B0008FF6B00089C6700084A
:1035B000006C0008016C0008D46B0008D66B000892
:1035C0000F48104810481148114812481248134833
:1035D0001348144814481548154816481648174803
:1035E000174818481848194819481A481A481B48D3
:1035F0001B481C481C481D481D481E48704700BFFA
:10360000B06A00084C6A0008506A0008546A000852
:10361000586A00085C6A0008606A0008646A00086A
:103620000E400008686A00086C6A0008D86B000841
:10363000706A0008746A0008786A00087C6A0008EA
:10364000806A0008846A0008886A0008D96B00084C
:103650008C6A0008906A0008946A0008986A00085A
:10366000DA6B00089C6A0008A06A0008A46A0008D7
:10367000A86A0008AC6A000872B64EF62250CEF274
:10368000000040F2FF01C0F20001017042F67850E4
:10369000C2F20000016881F3088842F61160C2F2AC
:1036A000000042F61261C2F200010A78027042F68E
:1036B000F055C2F2000542F6F451C2F200010A6868
:1036C0002A60106880F30988EFF3148040F002004C
:1036D00080F31488BFF36F8FBDE8F00F0FBCBDE817
:1036E000005006BC62B6084772B6EFF3098020E9C5
:1036F000F00F42F6F055C2F200052E6830607446B5
:10370000FDF78CFC42F61160C2F2000042F6126135
:10371000C2F200010A78027042F6F451C2F20001CE
:103720000A682A6044F0040E1068B0E8F00F80F3D5
:10373000098862B670478268521C8260426832B162
:103740000268531C036011704168491E4160704754
:1037500080B54FF4407000F01FF800F061F800F001
:10376000B1F900F0C3FA01BD00B585B000A800F0C2
:103770004FFC019805B000BD38B5FFF7F5FF040018
:1037800004480068B4FBF0F005002800FDF79EFC3B
:1037900031BD0000886A00081C4901431C4A1160C1
:1037A0007047F0B4002300210F22C478002C20D0F1
:1037B000174C246814F4E064D4F5E064240A230070
:1037C000D3F104042100DA4044788C40230084784B
:1037D000144023431B0104780E4D63550478641193
:1037E0000D4D0126077817F01F07BE4045F82460ED
:1037F00009E004786411094D0126077817F01F07C6
:10380000BE4045F82460F0BC704700000000FA0597
:103810000CED00E000E400E000E100E080E100E009
:1038200080B500F01BF800F046F800F003F800F057
:103830008CF801BD80B50121082000F057FC032061
:103840008DF8020010208DF803000420ADF8000070
:1038500000A9DFF85C0200F065FC01BD93489549C2
:1038600001609248944941609048944981608F4832
:103870004FF4806181818D484FF48061C1818B4814
:103880000021018289480021418288480021C182AB
:103890008648002101838548002141838348002117
:1038A000818282480021C1618048002101627F48F5
:1038B00000214162704700B585B00121052000F06C
:1038C00015FC01214FF4804000F010FC4FF4007013
:1038D000ADF8000018208DF8030003208DF80200D9
:1038E00000A9774800F01EFC4FF48060ADF800009E
:1038F00004208DF8030000A9714800F013FC5FF468
:10390000E13001900020ADF808000020ADF80A0079
:103910000020ADF80C000020ADF810000C20ADF830
:103920000E0001A9634800F099FC012240F22551E4
:10393000604800F013FD01215E4800F001FD4021C8
:103940005C4800F04EFD05B000BD80B525208DF827
:10395000000000208DF8020001208DF8030000A86F
:10396000FFF71FFF01BD38B5040040F22551206864
:1039700000F03DFD00281DD0206800F01EFD050070
:10398000E08AA1684554E08A401CE082E18980B267
:10399000884201D30020E082608BE189884202D214
:1039A000608B401C6083606A002803D02800C0B28E
:1039B000616A884740F22771206800F018FD0028EE
:1039C00023D0A08A00280CD1002240F22771206861
:1039D00000F0C4FC012240F22661206800F0BEFC29
:1039E0003CE0608A6168415C89B2206800F0E1FCDB
:1039F000608A401C6082A18980B2884201D3002085
:103A00006082A08A401EA08228E040F226612068E1
:103A100000F0EDFC002821D0A08A00280BD1002264
:103A200040F22661206800F099FC206A002815D039
:103A3000206A804712E0608A6168415C89B2206830
:103A400000F0B7FC608A401C6082A18980B2884285
:103A500001D300206082A08A401EA08231BD10B533
:103A60000024EFF31080040072B6FDF7D1FCFDF7DF
:103A700057FEFDF7E1FC84F310880C48FFF773FF55
:103A8000FDF760FE10BD38B504000D002100C9B27D
:103A900089B2084800F08DFC4021064800F091FCF6
:103AA0000028F9D0200032BD00000000FC2C0020CE
:103AB000000C014000380140A4100020A414002094
:103AC0000008014080B50121802000F00FFB01209B
:103AD00000F02FF8022000F02CF8032000F029F865
:103AE000042000F026F803208DF8020010208DF845
:103AF00003004FF40060ADF8000000A9324800F068
:103B000011FB8020ADF8000000A92F4800F00AFB4F
:103B10004FF48070ADF8000000A92B4800F002FBC4
:103B20004FF40070ADF8000000A9274800F0FAFA41
:103B300001BD401EC0B2002804D124494FF40062E8
:103B40000A6015E0C0B2012803D1204980220A6032
:103B50000EE0C0B2022804D11C494FF480720A6002
:103B600006E0C0B2032803D118494FF400720A607E
:103B70007047C0B2012806D11549096891F4006167
:103B8000134A11601EE0C0B2022806D1104909682C
:103B900091F080010E4A116014E0C0B2032807D1F1
:103BA0000B4909684FF480725140094A116009E0DD
:103BB000C0B2042806D1064909684FF4007251408A
:103BC000034A116070470000001C0140101C0140B6
:103BD0000C1C0140DFF8CC03006880040BD4DFF834
:103BE000C8030068C00706D4DFF8C0030068C0053A
:103BF00001D5012000E000207047DFF8A80300682D
:103C000080040BD5DFF8A0030068C00706D5DFF8F5
:103C10009C030068C00501D5012000E0002070472A
:103C2000DFF88003006880040BD5DFF87C030068B0
:103C3000C00706D4DFF874030068C00501D4012072
:103C400000E000207047DFF85C03006880040BD4BC
:103C5000DFF854030068C00706D5DFF8500300689A
:103C6000C00501D5012000E000207047DFF83403D3
:103C7000006880040BD5DFF830030068C00706D564
:103C8000DFF828030068C00501D4012000E000200F
:103C90007047DFF818030068000401D4012000E039
:103CA00000207047DFF808030068000701D40120F6
:103CB00000E000207047DFF8F4020068400401D4FF
:103CC000012000E000207047DFF8E0020068800477
:103CD00001D4012000E000207047DFF8D002006826
:103CE000000601D4012000E00020704780B500F0FC
:103CF0007AF800F02EF801BDDFF8B812C97ADFF8C3
:103D0000B4228854AB49C97A491CAA4AD172C9B2B3
:103D10000A2902D3A7490022CA727047A548807AAF
:103D2000A44AD27A904201D1002011E0A148807AC1
:103D3000A04A805C01009F48807A401C9D4A907296
:103D4000C0B20A2802D39B48002282720800C0B287
:103D5000704780B501214FF49A7000F0C7F9032035
:103D60008DF8020004208DF803004FF40050ADF8E8
:103D7000000000A9914800F0D5F90120ADF800003D
:103D800000A98F4800F0CEF94FF48070ADF8000024
:103D900000A98C4800F0C6F94FF40040ADF80000CF
:103DA00000A9884800F0BEF90820ADF8000000A97D
:103DB000854800F0B7F94FF48040ADF8000000A945
:103DC000804800F0AFF94FF40050ADF8000000A9B2
:103DD0007C4800F0A7F98020ADF8000000A97948E0
:103DE00000F0A0F901BD734900228A7271490022D6
:103DF000CA72704900220A7300210800C0B20A2862
:103E00001FD2C0B26C4911EB001164220A81C0B20A
:103E1000694911EB001102220A71C0B2664911EB27
:103E2000001100228A72C0B2634911EB0011002216
:103E3000CA72C0B2604911EB001100220A73401C23
:103E4000DCE75D4964220A875B49052281F83B2053
:103E500059496422A1F848205749052281F84B208E
:103E600055496422A1F858205349052281F85B2066
:103E700051496422A1F868204F49052281F86B203E
:103E80004D49524A0A604C49514A0A614A49514ACD
:103E90000A624949504A0A634749504A0A644649F6
:103EA0004F4A0A6544494F4A0A6643494E4A0A67DF
:103EB00041494E4AC1F880203F494D4AC1F89020FF
:103EC000704738B50400E4B23B4810EB041005001D
:103ED00028688047002845D02879052802D2052087
:103EE00028715DE028790A2803D22879401C2871BE
:103EF00056E0A87A002809D10120A872E4B2032074
:103F000000FB04F0401CC0B2FFF7F6FE2889012830
:103F100046D3E888298988420FD2E888401CE88087
:103F2000298980B288423BD1E4B2032000FB04F02F
:103F3000C01CC0B2FFF7E0FE32E0E87A01282FD3C0
:103F4000287B401C2873E97AC0B2884228D300201D
:103F50002873E4B2032000FB04F0401CC0B2FFF75A
:103F6000CBFE1DE02879062802D30520287113E036
:103F70002879002803D02879401E28710CE0A87AFF
:103F8000012809D10020A872E4B2032000FB04F04C
:103F9000801CC0B2FFF7B0FE0020E880002028732C
:103FA00031BD000008100140080801400820014010
:103FB00008140140242D0020B42B002000100140E3
:103FC000000801400020014000140140D53B0008DA
:103FD000FB3B0008213C0008933C0008A53C00087E
:103FE000B73C0008C93C0008DB3C0008473C00081F
:103FF0006D3C000810B500200400E4B20A2C05D284
:104000002000C0B2FFF75DFF641CF6E710BD200082
:1040100030B400210022002300243C4D2D6815F00F
:104020000C0529000D00002D04D0042D05D0082D0D
:1040300006D026E0364D056025E0354D056022E0CE
:10404000324D2D6815F470152A00304D2D6815F489
:1040500080352B00920C921C002B04D12D4D05FBBA
:1040600002F505600CE0294D2D68AD0304D5294DFE
:1040700005FB02F5056003E0254D05FB02F5056033
:1040800001E0234D0560214D2D6815F0F005290054
:104090000909214D4D5D2C000568E54045601B4D2B
:1040A0002D6815F4E0652900090A1B4D4D5D2C00B3
:1040B0004568E5408560154D2D6815F4605529006B
:1040C000C90A154D4D5D2C004568E540C5600F4D92
:1040D0002D6815F440452900890B104D4D5D2C00CD
:1040E000C568B5FBF4F5056130BC7047C9B200295D
:1040F00005D00B4A12680243094B1A6004E0084AD3
:1041000012688243064B1A60704700000410024098
:1041100000127A0000093D0090000020A00000205D
:1041200018100240F0B500270022002300240025CB
:10413000002691F803C01CF00F0C674691F803C0ED
:104140005FEACC6C03D591F802C05CEA070791F8EE
:1041500000C05FEA0C6C3AD0D0F800C065465FF052
:10416000000C6346082B31D25FF0010C1CFA03FCF3
:104170006446B1F800C014EA0C0C6246A24223D196
:104180005FEA830C64465FF00F0C1CFA04FC664681
:10419000B54317FA04FC5CEA050591F803C0BCF1CD
:1041A000280F06D15FF0010C1CFA03FCC0F814C004
:1041B0000AE091F803C0BCF1480F05D15FF0010C93
:1041C0001CFA03FCC0F810C05B1CCBE70560B1F81B
:1041D00000C04FF4807EF4453FD3D0F804C065465C
:1041E0005FF0000C6346082B36D25FF0010C13F130
:1041F000080E1CFA0EFC6446B1F800C014EA0C0C60
:104200006246A24226D15FEA830C64465FF00F0C3F
:104210001CFA04FC6646B54317FA04FC5CEA050583
:1042200091F803C0BCF1280F07D15FF0010C13F126
:10423000080E1CFA0EFCC0F814C091F803C0BCF1C3
:10424000480F07D15FF0010C13F1080E1CFA0EFCA9
:10425000C0F810C05B1CC6E74560F0BD2DE9F04713
:1042600086B004000D00002600275FF000085FF014
:1042700000095FF0000AA8890028A246208A0600EB
:104280004CF6FF700640E88806432682A0890600A7
:104290004EF6F3100640A888298908436989084327
:1042A0000643A681A08A06004FF6FF400640A88973
:1042B0000643A68200A8FFF7ABFE2048824502D144
:1042C0000398070001E002980700A089000408D5C0
:1042D000192000FB07F029684900B0FBF1F0804687
:1042E00007E0192000FB07F029688900B0FBF1F016
:1042F00080466420B8FBF0F000010600300964211C
:1043000001FB10808146A089000409D55FEAC9003D
:1043100032306421B0FBF1F010F00700064308E0F2
:104320005FEA091032306421B0FBF1F010F00F00A9
:104330000643268106B0BDE8F08700000038014042
:10434000C9B2002904D0828952F40052828104E06B
:1043500082894DF6FF731A4082817047F0B40023C2
:1043600000240025002640F66A1789B2B9420600EB
:104370000F00FFB27F09FFB23B0089B211F01F07A7
:104380003C000127A7403D00012B01D10C3604E081
:10439000022B01D1103600E01436D2B2002A03D02D
:1043A00037682F43376002E03768AF433760F0BCAF
:1043B0007047CA05D20D828070478088C005C00D45
:1043C0007047020000204FF4007389B299421388AD
:1043D0000B4202D00123180001E000231800C0B2F4
:1043E000704789B28A0589B2CA430280704770B4A7
:1043F0000200002300250024002040F66A1689B23E
:10440000B1420E00F6B27609F6B2340089B211F06C
:104410001F063500012616FA05F5012C02D19689F2
:10442000354006E0022C02D1168A354001E0968A1A
:10443000354089B20E0AB6B23300012616FA03F3EC
:1044400016883340002D04D0002B02D00126300006
:1044500001E000263000C0B270BC70472DE9F04F7B
:10446000A1B0804617461D46029102AE0020706240
:1044700011AC6FF000490AE017F8011B0298C04721
:104480000290002800F07C82706A401C70623878CC
:1044900008B9706A76E22528EED10020F06030611C
:1044A0007061B061F061306201E040F0010017F826
:1044B000011F2029F9D023290ED02B2904D02D2922
:1044C00006D030290CD00FE040F0020080B2EEE7B9
:1044D00040F0040080B2EAE740F0080080B2E6E76E
:1044E00040F0100080B2E2E72A290DD129680A1DA8
:1044F0002A600968F162002904D54942F16240F05E
:10450000040080B27F1C11E00021F16209E0F16A31
:10451000494505D001EB810302EB43013039F162DB
:104520007F1C3A78A2F130010A29F0D339782E297C
:104530001CBF4FF0FF31B1621CD117F8011F2A29AF
:1045400006D129680A1D2A600968B1627F1C11E042
:104550000021B16209E0B16A494505D001EB810350
:1045600002EB43013039B1627F1C3A78A2F130018D
:104570000A29F0D3308639780FF6CC3000F0F2FDFE
:1045800008B117F8010B8DF83A009DF83A00682839
:1045900004D1387868280AD1622005E06C2804BF6D
:1045A00038786C2803D171208DF83A007F1C11A84F
:1045B000B0603A781046253825D01C3875D0001FD9
:1045C000022872D9133800F09C8009386DD0801E03
:1045D00000F03781401E00F0DD80401E022864D9C3
:1045E000001F00F0D780401F34D0401E00F08980AB
:1045F000401E24D0C01E0CD0801E00F08280C01E41
:1046000000F07F8026E1F068411CF1602521015512
:104610002AE12868011D296000687060B26A002ADA
:1046200003D500F0ABFD30611EE1002100F0C2FDBA
:1046300000281ABF7168401AB06A306114E1286816
:10464000011D296000680021CDE9000111A87060FA
:104650007821F2E09DF83A00622818D0682806D048
:104660006A280BD06C2819D0712807D016E028686A
:10467000011D2960716A00680180F5E02A68101D3B
:104680002860706AC1171268C2E90001ECE028686E
:10469000011D2960716A00680170E5E02868011D4C
:1046A0002960716A00680160DEE02868C01D20F0A2
:1046B00007002860034603F108002860D3E90001E1
:1046C000CDE90001002904D5F068411CF1602D21DD
:1046D0000DE0308E810704D5F068411CF1602B217C
:1046E00005E0C00704D5F068411CF16020210155A8
:1046F000F06811A940187060114600A800F0D8F9C0
:10470000B2E09DF83A306C2B08BF286811D0712BAD
:1047100008BF286802D06A2B28680AD1C01D20F083
:104720000700286084460CF108002860DCE90001DD
:1047300003E0011D296000680021CDE90001682B1C
:1047400004BFDDE9000180B20BD0622B04BFDDE9BC
:104750000001C0B205D0742B18BF7A2B04D1DDE95B
:1047600000010021CDE9000196F8300000075FD577
:10477000DDE90001002908BF002859D042F02000DF
:10478000782855D1F06830210155401C411CF1605A
:1047900002554DE09DF83A0062280CD0682810D0F0
:1047A0006A281AD06C2824D0712816D0742820D0FA
:1047B0007A280CD01DE02868011D296090F90000BE
:1047C0001BE02868011D2960B0F9000015E0286889
:1047D000011D29600068002110E02868C01D20F03C
:1047E00007002860034603F108002860D3E90001B0
:1047F00004E02868011D29600068C117CDE90001A7
:10480000DDE90001002904DAF068411CF1602D2186
:104810000DE0308E810704D5F068411CF1602B213A
:1048200005E0C00704D5F068411CF1602021015566
:10483000F06811A940187060114600A800F0A5F8B2
:1048400012E0F068411CF16029680A1D2A600968BD
:10485000015509E0F068411CF160252101551AB1AC
:10486000F068411CF16002557F1CF06AF168401A43
:10487000B169401A3169401AF169401A7169401AE8
:10488000316AA0EB010A96F83000400711D42020CD
:104890008DF84000BAF1010F0BDBD346012310AABB
:1048A00000A9404600F038FC002869D1BBF1010B9B
:1048B000F4D1F36811AA00A9404600F02DFC0028AD
:1048C0005ED130208DF84000D6F818B0BBF1010F52
:1048D0000ADB012310AA00A9404600F01DFC0028B5
:1048E0004ED1BBF1010BF4D13369726800A9404687
:1048F00000F012FC002843D130208DF84000D6F89B
:104900001CB0BBF1010F09DB012310AA00A940462E
:1049100000F002FCA0BBBBF1010BF5D1736930695B
:104920007168421800A9404600F0F6FB40BB3020F9
:104930008DF84000D6F820B0BBF1010F09DB012350
:1049400010AA00A9404600F0E7FBC8B9BBF1010B73
:10495000F5D196F8300040077FF599AD20208DF80D
:104960004000BAF1010FFFF692AD012310AA00A991
:10497000404600F0D1FB18B9BAF1010AF5D186E53D
:104980004FF0FF3021B0BDE8F08F2DE9FA4B86B033
:1049900005462F696F2908BF082605D041F0200081
:1049A000782814BF0A2610263C24D5E90001814648
:1049B0008B469DF81820642A18BF692A05D1002962
:1049C00003DAD9F100096BEB4B0BBBF1000F08BF09
:1049D000B9F1000F0CD1286B50B9082E44D195F8CD
:1049E0003800000740D53B24302087F83B003BE0EF
:1049F000A4F101084446F017CDE904604846594641
:104A0000DDE9042300F002FCCDE90201CDE9009BC1
:104A1000DDE90223DDE90401A0FB029BDDE90001E1
:104A2000A0EB09003030C0B23A2803D39DF818102B
:104A30005139081808F80700DDE9029BBBF1000FA7
:104A400008BFB9F1000F03D0E868E1198842CFD35D
:104A5000082E09D195F83800000705D5E05D30280B
:104A600002D0641E3020E055C4F13C00A861E11979
:104A7000E960296B884207DA081A2862288F4FF606
:104A8000EF710840288710E000290ED595F83810FE
:104A900001F01401102908D1696B6A69891A2A6A20
:104AA000891A0C1A012CA8BF2C6208B0BDE8F08B43
:104AB0002DE9F24F8EB0054604AFD5E90001CDE9EE
:104AC00002019DF8380040F020008DF800006128B8
:104AD0000BD0286B002848BF062005D404BF9DF8E2
:104AE0000000672801D1012028636968C1F30A50DA
:104AF00040F2FF7398421CD1080304BF28680028C5
:104B000009D10320A8619DF8380061381A2837D3ED
:104B10000FF2486108E00320A8619DF83800613871
:104B20001A282AD30FF22C610322E86800F0E6FB72
:104B3000BBE1010017D1284600F01BFC012812DB65
:104B4000002400209DF80010612920D1E96830225E
:104B500001F8012B4A1CEA609DF83820612A0CBF3D
:104B6000782258220FE040F2FE316A6861F31E524B
:104B70006A60441A4FF0FF30E4E70FF2D451D3E7F4
:104B80000FF2D451D0E70A706969891C696110B9C4
:104B90000026B0467FE19DF80000612840F0978034
:104BA000286B00284CBF2126461C36B2771CD5E95D
:104BB00000ABDDE902010022002300F0FDFB3ABF5B
:104BC0008BF00040CDE902A0CDE902ABA4F10408CE
:104BD0008DF810200DF11109012F33DBDDE9020101
:104BE0000022002300F000FC2CD21C2102A800F0BF
:104BF00013FCDDE9020100F09DFC0446FF1F012FBC
:104C000009DB00F0C3FC02460B46DDE9020100F0BF
:104C1000D5FCCDE9020109F20700072104E004F008
:104C20000F0200F8012D2411012C01DB491EF6D5DD
:104C3000491E5CBF002200F8012DF9D500F20709DA
:104C4000012FCBDA0DF11100A9EB00010DF11107D5
:104C5000B142B8BF0E4636B2002E31D4304688423B
:104C600006DA04A941184978082928BF0F2100D283
:104C7000002104AA821800E0761E401E12F80139B5
:104C80008B42F9D00F2904D104A941184A78521C4B
:104C90004A70002803D504AF761C08F1040836B228
:104CA000701E0DD4C1190A783032D2B23A2A03D319
:104CB0009DF838303A3B9A1801F80129401EF2D588
:104CC000286B002840F1E780701E2863E3E0DDE9EF
:104CD00002010022002300F06FFB05D2DDE9020192
:104CE00081F00041CDE9020124B247F297506043C0
:104CF0006F4990FBF1F80FFA88F8C8F10704002714
:104D0000DFF8B091012C19DBDDE902ABE00707D534
:104D1000504659463A464B4600F010FD82468B46B7
:104D20006410384649463A464B4600F007FD0746B0
:104D30008946002CEAD1CDE902AB21E064429246DB
:104D4000DFF874B114D0E00707D5504659463A460B
:104D50004B4600F0F3FC82468B46641038464946C9
:104D60003A464B4600F0EAFC07468946002CEAD159
:104D7000DDE9020152465B4600F0B2FDCDE90201D9
:104D80009DF8000066280CBF08F10A000620296B78
:104D90004618142EA8BF132630208DF810000DF1F0
:104DA0001104464F012E33DBDDE9020100F0D8FB90
:104DB00004F1080104220A24B0FBF4F303EB830E90
:104DC000A0EB4E00303001F8010DB3FBF4F000EB26
:104DD0008004A3EB4403303301F8013D521EEAD1B5
:104DE00001F10804083E012EDCDBDDE9020100F0E0
:104DF000B7FB00F0D5FB02460B46DDE9020100F0EF
:104E0000DDFB00223B4600F099FCCDE90201CBE737
:104E10000DF11100201A0DF111079DF81110302924
:104E200006D1401EA8F1010817F8011F3029F8D05B
:104E30009DF80010662904BF0FFA88F808F10101F7
:104E400003D065290CBF012100212A6B8E1836B2D0
:104E5000B042B8BF064636B2002E1CD4314681425D
:104E600004DAC85D352828BF392000D23020CA199D
:104E7000521E00E0761E491E12F801398342F9D015
:104E8000392802D1C85D401CC855002903D57F1EB2
:104E9000761C08F101080FFA88F0009033B23A4608
:104EA0009DF83810284600F00BF80FB0BDE8F08FE1
:104EB000A0860100000024400000F03F84D7974105
:104EC0002DE9F04786B006468A4690461C46BDF955
:104ED000385000F046FE406A90F80090376B012C85
:104EE00002DA01240FF278284AF02000662807D061
:104EF00067287AD16FF003018D427CDBBD427ADAFC
:104F00006D1C66280AD096F83800000702D4BC420F
:104F1000B8BF27462DB27F1B48BF0027F068B16994
:104F20002DB2012D21DA4A1C30230B54012F03DA54
:104F300096F83810090702D502F80090521CB261A9
:104F4000EF42B8BF7D422DB269427162EF19A742AC
:104F5000B8BF3C4624B2F46122464146B3691818F2
:104F600000F0CCF9381BB062BFE00818AC4216DA8A
:104F70002246414600F0C2F9B1696118B161281BAF
:104F80007062012F03DA96F83800000705D5F06843
:104F900001F80090F069401CF061B762A5E02A4674
:104FA000414600F0ABF9B0692818B061641B012FCD
:104FB00003DA96F83810090704D5411CB161F1688D
:104FC00000F8019024B2A742B8BF3C4624B2224662
:104FD00005EB0801B069F368C01800F08FF9B069FB
:104FE0002018B061381B70627FE0BAF1610F14D1F4
:104FF0004FF0700A16E0BC4204DA96F83810090740
:1050000058BF27467F1E48BF0027BAF1670F14BF5D
:105010004FF0450A4FF0650A04E0BAF1410F08BFAE
:105020004FF0500AB1694A1CF06818F8013B0B5464
:10503000012F03DA96F83810090702D502F800901C
:10504000521CB261012F10DB641E24B2A742B8BF0C
:105050003C4624B222464146B369181800F04EF986
:10506000B0692018B061381B7062B069F16800EB5C
:10507000010808F801AB002D5CBF2B2008F8010BDC
:1050800003D52D2008F8010B6D42002402AF2DB28C
:10509000012D0EDB0A22294600A800F07BFD0198B5
:1050A00007F8010B009D641C2DB2012DF2DA022CD1
:1050B00006DA4AF02000652804BF302008F8010B0A
:1050C0001CB9302008F8010B09E0012C07DB641E35
:1050D00002A8205C303008F8010B012CF7DAB06927
:1050E000F1684018A8EB0000F06196F8380000F075
:1050F000140010280DD17069B1690818716A081878
:10510000F1690818B16A0818716B8842BCBF081AA7
:10511000306206B0BDE8F087F8B504460D46164685
:105120001F46002077B116F8011BA868A047A860A9
:1051300030B1E86A401CE86200207F1EF3D1F2BD66
:105140004FF0FF30F2BD0000686A6C747A4C0000CA
:105150006E616E004E414E00696E6600494E46001B
:10516000300028000278C9B28A421AB11CBF10F878
:10517000012FF9E718BF00207047040000F1010378
:10518000810704D010F8011B89B18107FAD10268A8
:10519000B2F10131914311F0803F04BF50F8042F68
:1051A000F6E710F8011B11B110F8011BFBE7C01A5C
:1051B00070472000C9B2830706D0521E22D310F8D0
:1051C000013B9942F7D11FE0083A13D302F10402E0
:1051D00041EA012141EA014150F8043B121F21BF7D
:1051E0004B40A3F1013C2CEA030C1CF0803FF3D0B0
:1051F000C9B2001F083210F8013B521E28BF91EAC5
:10520000030FF8D818BF0120401E70471B4213D16E
:10521000094236D12AB18446B0FBF2F002FB10C23B
:10522000704700F0BFBCFCD30022002370470B0086
:105230000200002100207047904271EB030CF6D36E
:1052400070B5B1FA81F4B3FA83F52C1BA340C4F115
:10525000200532FA05F63343A2405FF00046E640EF
:1052600002E05B085FEA3202841A71EB030524BF97
:10527000204629467641F4D302000B00300000217D
:1052800070BD012ACFD970B5140C20D0B1FA81F4C9
:10529000B2FA82F5C4F120046419B4F12006D6D321
:1052A000B2405FF00044F440002502E052085FEA9B
:1052B0003303C61A71EB020E24BF304671466441B7
:1052C0006D41F3D302000B002000290070BD0C4695
:1052D000B1FBF2F102FB11452D0445EA1045B5FB87
:1052E000F2F402FB145580B240EA0545B5FBF2F03A
:1052F00002FB105240EA044070BD100062B38B07FD
:1053000008D0521E11F8013B00F8013B00F0248048
:105310008B07F6D1830740F0208000BF103A07D3F7
:1053200030B4B1E83810103AA0E83810F9D230BCE7
:10533000530724BFB1E80810A0E8081044BF51F893
:10534000043B40F8043BD20724BF31F8022B20F87D
:10535000022B44BF0B7803707047083A07D3B1E8BB
:105360000810083A40F8043B40F804CBF7D2530742
:10537000E4E730B4416801F00042012143681B03B7
:105380001B0B436004BF0368002B0ED00368446806
:10539000DD0F45EA440444605B000360491EE302FC
:1053A000F4D543681B031B0B436043681A434260F8
:1053B000084630BC70470C004FF4001C1CEB410F3A
:1053C00094BF1CEB430F09E041EA030C50EA4C0C7C
:1053D00052EA0C0C03D2994208BF9042704714BFA6
:1053E0008B428242704710004FF4001C1CEB410FAF
:1053F00094BF1CEB430F09E041EA030C50EA4C0C4C
:1054000052EA0C0C03D28B4208BF8242704714BF91
:10541000994290427047300070B504460D4660686E
:10542000C0F30A5040F2FF72904207D16068000357
:1054300004BF2068002818D0022070BD010004D1EC
:105440002046FFF796FF012867DA012D0FDB40F2B7
:10545000FF71091A8D420AD36068002847BF0020F7
:105460002F4900202F49C4E90001012070BD4142AD
:10547000A942616806DA2C4A1140401941EA0050FD
:10548000606053E001F0004162681203120B42F4C5
:1054900080126260401E451905F13500352803D39E
:1054A00061600020206070BD002215F11F0F05DA39
:1054B000203522686068206000206060684213D058
:1054C000521E9241D243C0F1200325689D4055EA07
:1054D000D2722568C540666806FA03F32B43236041
:1054E000636823FA00F06060606808436060B2F1AE
:1054F000004F03D80BD12078C00708D52068401C86
:105500002060206818B96068401C60600EE0606828
:10551000884204BF20680028F8D1002070BD000038
:105520000000F0FF0000F07FFFFF0F804FF0FF3022
:1055300070BD2000F446400D40EAC120490006D26B
:1055400000F014F8004248BF6FF00040604700F0E0
:105550000DF84FF0004188428CBF0846404260473A
:10556000400D40EAC120490080F00D8040F000402D
:10557000490DA1F58061491C05D4D1F11F0154BF2B
:10558000C840C01770474FF000007047010040F15D
:105590000980F446404200F005F851F000416047B0
:1055A000010000BF09D0B0FA80F18840C91CC1F5E4
:1055B0008461090501EBD0214005704770B44FF0BC
:1055C000004591EA030F44BF6B4000F0EDBA00BF05
:1055D000841A71EB030604D26E40001BB14112190C
:1055E00073414FF4001C1CEB410F34BF7CEB4306AE
:1055F00084E00C0DA4EB1356362E7DDC012E43DC2B
:1056000045EAC32343EA525312BFD20292025B0817
:10561000240545EAC12141EA5051D2EBC02099410D
:1056200025D407D1B0FA80F610FA06F164D0002034
:10563000203608E0B1FA81F6B140C6F1200220FA26
:1056400002F21143B0404FEAF474B4EB465434F024
:1056500001064FEA74040AD8D6F50016760D04F058
:105660000044F04061FA06F25040F1404840C00A60
:1056700040EA415021F0004128BF5FEA500550F157
:10568000000044EBD12137E045EAC323DB0A45EAB9
:10569000C121C90AB6F120050EDD42EA0242120C10
:1056A000C5F1200603FA06F6EB4042EA06056D4214
:1056B000984161F100010DE062FA06F5F2405540B3
:1056C00063FA06FC82EA0C02F3405A406D429041B4
:1056D00061EB030111F4801F05D1641E620502D045
:1056E0006D004041494121F48011430875F10043A8
:1056F00050F1000041EB045170BC70471CEB410FAE
:1057000015D223F0004352EA43060BD04FEA4C0C6B
:10571000BCEB410F04D80C0D661E342EB7DDEBE751
:10572000801A994150EA410608BF0021E4E708BF0A
:105730001CEB430F28BF6FF00001DDE7B0B581EA35
:10574000030C0CF0004C40F2FF7515EA11541DBF1C
:1057500015EA1357AC42AF4239E0E41923EA455346
:1057600043F48013C90241F0004141EA505EC70290
:105770001100A7FB020200284FF00000EEFB012001
:105780004FF00001E3FB072118BF42F0010240186F
:1057900000214941E3FB0E01A4F580640F0302D20E
:1057A00052004041494154F101046CDD470872F157
:1057B000004250F1000051EB0451A1F580115CBF93
:1057C00041EA0C01B0BD4CEA05510020B0BD05EA2C
:1057D0001357AC4214BFAF4241E050EA410E1CBF28
:1057E00052EA430E02E061460020B0BD24423C4430
:1057F0001BD15FEA070EF6D0090302BF0146002065
:10580000AEF1140EB1FA81F7AEEB070401FA07FE10
:105810000C37C7F1200100FA07F7C8404EEA000E26
:1058200023EA455343F48013A2E733F00043B3FA6D
:1058300083F704BFB2FA82FE77440B3FE41BB7F153
:10584000200E2FBF02FA0EF3BB40C7F1200E22FA42
:105850000EFE38BF43EA0E03BA40641C82E750EAEA
:10586000410E14BF52EA430E6FF000014FF40017CF
:1058700017EB430F8ABF194617EB410FB5E74CEA08
:1058800005510020B0BDD4F10104B4F120070FDAB6
:10589000C4F12007520828BF42F0010210FA07F5B0
:1058A00001FA07F7E1BF2A43E0403843E1400FE047
:1058B000352C98DCC7F1200452EA400220FA07F2A6
:1058C00018BF42F0010231FA07F0A1400A4300215B
:1058D00072F1004250F1000051EB0C01B0BD0C0020
:1058E000F0B540F2FF7581EA030C0CF0004C15EAAC
:1058F00011541DBF15EA1357AC42AF42E5E0BC415D
:10590000C1F31301C3F31303801A994143F48013C5
:1059100004D2641E4000494180185941C90241EA3D
:105920005051B1FBF3F603FB1611A2FB0675D7EB42
:10593000C020A94102D2761E80185941C90241EA0D
:105940005051B1FBF3FE03FB1E11A2FB0E75D7EB0A
:10595000C020A94103D2AEF1010E8018594189023D
:1059600041EA9051760546EA8E2EB1FBF3F603FB31
:105970001611A2FB0675D7EB8020A94102D2761E34
:1059800080185941C90241EA50514EEA060EB1FB56
:10599000F3F603FB1611A2FB0675D7EBC020A94155
:1059A00002D2761E80185941C90241EA5051B1FB1A
:1059B000F3F703FB1711A2FB0735D3EBC020A94176
:1059C00067F100070CBF004247F0010766F3D527D7
:1059D0004FEA1E31B80814F5806412DDBD0775F179
:1059E000004250EB0E5051EB045111F5801F5CBF8B
:1059F00041EA0C01F0BD4CF07F6141F0E041002034
:105A0000F0BDBD076D0840EA0E5041F48011D4F19D
:105A10000104B4F120060ADAC4F120060200E040D5
:105A200001FA06F3E1401843B24015430EE0342C6E
:105A300013DCC6F1200445EA40056D0820FA06F2A1
:105A4000154321FA06F0A1400D43002175F10042F3
:105A500050F1000051EB0C01F0BD00205FEA0C0199
:105A6000F0BDCFB992185B41B3FA83F704BFB2FA25
:105A700082F6BF190B3FB7F120062FBF02FA06F3DB
:105A8000BB40C7F1200622FA06F638BF3343BA40BE
:105A90001CB1E419641E33E77F4231F00041B1FAD2
:105AA00081F404BFB0FA80F6A4190B3CB4F12006CF
:105AB0002FBF00FA06F1A140C4F1200620FA06F635
:105AC00038BF3143A0403C1B1AE7AC421ABF05EA7D
:105AD0001357AF4212E050EA41061CBF52EA430698
